{
  "@chainlink/contracts/src/v0.8/vrf/dev/libraries/VRFV2PlusClient.sol": {
    "VRFV2PlusClient": {
      "abi": [
        {
          "inputs": [],
          "name": "EXTRA_ARGS_V1_TAG",
          "outputs": [
            {
              "internalType": "bytes4",
              "name": "",
              "type": "bytes4"
            }
          ],
          "stateMutability": "view",
          "type": "function"
        }
      ],
      "evm": {
        "bytecode": {
          "linkReferences": {},
          "object": "608080604052346100195760ad908161001e823930815050f35b5f80fdfe60808060405260043610156011575f80fd5b5f3560e01c63f7514ab4146023575f80fd5b5f7ffffffffffffffffffffffffffffffffffffffffffffffffffffffffffffffffc360112607357807f92fd13380000000000000000000000000000000000000000000000000000000060209252f35b5f80fdfea2646970667358221220460b23dd72395a9d58cc0b3c1f586802dc50bdb09da1e3da0d66616967fc740264736f6c63430008180033",
          "opcodes": "PUSH1 0x80 DUP1 PUSH1 0x40 MSTORE CALLVALUE PUSH2 0x19 JUMPI PUSH1 0xAD SWAP1 DUP2 PUSH2 0x1E DUP3 CODECOPY ADDRESS DUP2 POP POP RETURN JUMPDEST PUSH0 DUP1 REVERT INVALID PUSH1 0x80 DUP1 PUSH1 0x40 MSTORE PUSH1 0x4 CALLDATASIZE LT ISZERO PUSH1 0x11 JUMPI PUSH0 DUP1 REVERT JUMPDEST PUSH0 CALLDATALOAD PUSH1 0xE0 SHR PUSH4 0xF7514AB4 EQ PUSH1 0x23 JUMPI PUSH0 DUP1 REVERT JUMPDEST PUSH0 PUSH32 0xFFFFFFFFFFFFFFFFFFFFFFFFFFFFFFFFFFFFFFFFFFFFFFFFFFFFFFFFFFFFFFFC CALLDATASIZE ADD SLT PUSH1 0x73 JUMPI DUP1 PUSH32 0x92FD133800000000000000000000000000000000000000000000000000000000 PUSH1 0x20 SWAP3 MSTORE RETURN JUMPDEST PUSH0 DUP1 REVERT INVALID LOG2 PUSH5 0x6970667358 0x22 SLT KECCAK256 CHAINID SIGNEXTEND 0x23 0xDD PUSH19 0x395A9D58CC0B3C1F586802DC50BDB09DA1E3DA 0xD PUSH7 0x616967FC740264 PUSH20 0x6F6C634300081800330000000000000000000000 "
        },
        "methodIdentifiers": {
          "EXTRA_ARGS_V1_TAG()": "f7514ab4"
        }
      }
    }
  }
}