{
  "contracts/oracle/RandomizerOracle.sol": {
    "RandomizerOracle": {
      "abi": [
        {
          "inputs": [
            {
              "internalType": "uint256",
              "name": "_subscriptionId",
              "type": "uint256"
            },
            {
              "internalType": "address",
              "name": "_vrfCoordinator",
              "type": "address"
            }
          ],
          "stateMutability": "nonpayable",
          "type": "constructor"
        },
        {
          "inputs": [
            {
              "internalType": "address",
              "name": "have",
              "type": "address"
            },
            {
              "internalType": "address",
              "name": "want",
              "type": "address"
            }
          ],
          "name": "OnlyCoordinatorCanFulfill",
          "type": "error"
        },
        {
          "inputs": [
            {
              "internalType": "address",
              "name": "have",
              "type": "address"
            },
            {
              "internalType": "address",
              "name": "owner",
              "type": "address"
            },
            {
              "internalType": "address",
              "name": "coordinator",
              "type": "address"
            }
          ],
          "name": "OnlyOwnerOrCoordinator",
          "type": "error"
        },
        {
          "inputs": [],
          "name": "ZeroAddress",
          "type": "error"
        },
        {
          "anonymous": false,
          "inputs": [
            {
              "indexed": false,
              "internalType": "address",
              "name": "vrfCoordinator",
              "type": "address"
            }
          ],
          "name": "CoordinatorSet",
          "type": "event"
        },
        {
          "anonymous": false,
          "inputs": [
            {
              "indexed": true,
              "internalType": "address",
              "name": "from",
              "type": "address"
            },
            {
              "indexed": true,
              "internalType": "address",
              "name": "to",
              "type": "address"
            }
          ],
          "name": "OwnershipTransferRequested",
          "type": "event"
        },
        {
          "anonymous": false,
          "inputs": [
            {
              "indexed": true,
              "internalType": "address",
              "name": "from",
              "type": "address"
            },
            {
              "indexed": true,
              "internalType": "address",
              "name": "to",
              "type": "address"
            }
          ],
          "name": "OwnershipTransferred",
          "type": "event"
        },
        {
          "anonymous": false,
          "inputs": [
            {
              "indexed": false,
              "internalType": "uint256",
              "name": "requestId",
              "type": "uint256"
            },
            {
              "indexed": false,
              "internalType": "uint256[]",
              "name": "randomWords",
              "type": "uint256[]"
            }
          ],
          "name": "RequestFulfilled",
          "type": "event"
        },
        {
          "anonymous": false,
          "inputs": [
            {
              "indexed": false,
              "internalType": "uint256",
              "name": "requestId",
              "type": "uint256"
            },
            {
              "indexed": false,
              "internalType": "uint32",
              "name": "numWords",
              "type": "uint32"
            }
          ],
          "name": "RequestSent",
          "type": "event"
        },
        {
          "inputs": [],
          "name": "acceptOwnership",
          "outputs": [],
          "stateMutability": "nonpayable",
          "type": "function"
        },
        {
          "inputs": [],
          "name": "getRandomNumber",
          "outputs": [
            {
              "internalType": "uint256",
              "name": "",
              "type": "uint256"
            }
          ],
          "stateMutability": "nonpayable",
          "type": "function"
        },
        {
          "inputs": [
            {
              "internalType": "uint256",
              "name": "_requestId",
              "type": "uint256"
            }
          ],
          "name": "getRequestStatus",
          "outputs": [
            {
              "internalType": "bool",
              "name": "fulfilled",
              "type": "bool"
            },
            {
              "internalType": "uint256[]",
              "name": "randomWords",
              "type": "uint256[]"
            }
          ],
          "stateMutability": "view",
          "type": "function"
        },
        {
          "inputs": [],
          "name": "latestRequestId",
          "outputs": [
            {
              "internalType": "uint256",
              "name": "",
              "type": "uint256"
            }
          ],
          "stateMutability": "view",
          "type": "function"
        },
        {
          "inputs": [],
          "name": "owner",
          "outputs": [
            {
              "internalType": "address",
              "name": "",
              "type": "address"
            }
          ],
          "stateMutability": "view",
          "type": "function"
        },
        {
          "inputs": [
            {
              "internalType": "uint256",
              "name": "requestId",
              "type": "uint256"
            },
            {
              "internalType": "uint256[]",
              "name": "randomWords",
              "type": "uint256[]"
            }
          ],
          "name": "rawFulfillRandomWords",
          "outputs": [],
          "stateMutability": "nonpayable",
          "type": "function"
        },
        {
          "inputs": [
            {
              "internalType": "uint256",
              "name": "",
              "type": "uint256"
            }
          ],
          "name": "requestIds",
          "outputs": [
            {
              "internalType": "uint256",
              "name": "",
              "type": "uint256"
            }
          ],
          "stateMutability": "view",
          "type": "function"
        },
        {
          "inputs": [],
          "name": "s_vrfCoordinator",
          "outputs": [
            {
              "internalType": "contract IVRFCoordinatorV2Plus",
              "name": "",
              "type": "address"
            }
          ],
          "stateMutability": "view",
          "type": "function"
        },
        {
          "inputs": [
            {
              "internalType": "address",
              "name": "_vrfCoordinator",
              "type": "address"
            }
          ],
          "name": "setCoordinator",
          "outputs": [],
          "stateMutability": "nonpayable",
          "type": "function"
        },
        {
          "inputs": [
            {
              "internalType": "address",
              "name": "to",
              "type": "address"
            }
          ],
          "name": "transferOwnership",
          "outputs": [],
          "stateMutability": "nonpayable",
          "type": "function"
        }
      ],
      "evm": {
        "bytecode": {
          "linkReferences": {},
          "object": "60a03461013657601f61100438819003918201601f19168301916001600160401b0383118484101761013a5780849260409485528339810103126101365780516020909101516001600160a01b038116908190036101365733156100f1575f80546001600160a01b0319908116331790915581156100df5760028054909116821790557f787d74caea10b2b357790d5b5247c2f63d1d91572a9846f780606e4d953677ae600455600580546001600160501b031916680186a0000300000001179055608052600355604051610eb5908161014f8239608051816103750152f35b60405163d92e233d60e01b8152600490fd5b60405162461bcd60e51b815260206004820152601860248201527f43616e6e6f7420736574206f776e657220746f207a65726f00000000000000006044820152606490fd5b5f80fd5b634e487b7160e01b5f52604160045260245ffdfe6080604081815260049182361015610015575f80fd5b5f3560e01c9081631aa46f5914610cfe575080631fe543e314610a7d57806379ba5097146109735780638796ba8c1461091d5780638da5cb5b146108cc5780638ea98117146107945780639eccacf614610742578063d8a4676f146105e8578063dbdff2c1146102005763f2fde38b1461008d575f80fd5b346101fc5760207ffffffffffffffffffffffffffffffffffffffffffffffffffffffffffffffffc3601126101fc5781359173ffffffffffffffffffffffffffffffffffffffff8084168094036101fc575f54169182330361019f57338414610142575050817fffffffffffffffffffffffff000000000000000000000000000000000000000060015416176001557fed8889f560326eb138920d842192f0eb3dd22b4f139c87a2c57538e05bae12785f80a3005b90602060649251917f08c379a0000000000000000000000000000000000000000000000000000000008352820152601760248201527f43616e6e6f74207472616e7366657220746f2073656c660000000000000000006044820152fd5b90602060649251917f08c379a0000000000000000000000000000000000000000000000000000000008352820152601660248201527f4f6e6c792063616c6c61626c65206279206f776e6572000000000000000000006044820152fd5b5f80fd5b5090346101fc575f7ffffffffffffffffffffffffffffffffffffffffffffffffffffffffffffffffc3601126101fc57805491600354916005549061ffff9460209563ffffffff9385519160c083019367ffffffffffffffff94848110868211176105bc57885283528883019788528683019080838b1c1682526060840191878460301c1683528760808601941684528851948b8601868110888211176105905791899594929b8694929c8c525f885260a08d019788528d60248d519e8f927f9b1c385e0000000000000000000000000000000000000000000000000000000084528d840152519101525160448d0152511660648b015251166084890152511660a48701525160c060c4870152868682518060e48301525f935b8185106105765750601f935081610104915f8382840101527fffffffffffffffffffffffffffffffffffffffffffffffffffffffffffffffe0958691011681010301815f73ffffffffffffffffffffffffffffffffffffffff7f0000000000000000000000000000000000000000000000000000000000000000165af195861561056c575f9661053d575b506006549268010000000000000000841015610511576103cd60019460018101600655610d36565b81549060031b907fffffffffffffffffffffffffffffffffffffffffffffffffffffffffffffffff8a831b921b19161790558660085584600554169161042a61041584610e22565b9361042289519586610de1565b808552610e22565b0136898401376001865161043d81610d98565b5f8152898101828152888201948552895f5260078b52885f2091511515907fffffffffffffffffffffffffffffffffffffffffffffffffffffffffffff000060ff61ff0085549351151560081b1693169116171781550191519081519384116105115750908783926104b188969584610e3a565b01905f52875f205f5b8381106104fd5750505050507fcc58b13ad3eab50626c6a6300b1d139cd6ebb1688a7cced9461c2f7e762665ee916005541681519085825286820152a151908152f35b8251818301558795509189019184016104ba565b6041907f4e487b71000000000000000000000000000000000000000000000000000000005f525260245ffd5b9095508681813d8311610565575b6105558183610de1565b810103126101fc5751945f6103a5565b503d61054b565b85513d5f823e3d90fd5b8481018401518a860161010401529383019389925061031a565b6041897f4e487b71000000000000000000000000000000000000000000000000000000005f525260245ffd5b6041877f4e487b71000000000000000000000000000000000000000000000000000000005f525260245ffd5b50346101fc57602091827ffffffffffffffffffffffffffffffffffffffffffffffffffffffffffffffffc3601126101fc57803590815f526007845260ff835f205460081c16156106e657505f5260078252805f2081519261064984610d98565b60ff82548181161515865260081c161515818501526001809201938351908183875491828152019081975f52845f20905f5b8181106106d35750505082610691910383610de1565b81858201525115159084519480860192865283860152518091526060840194915f5b8281106106c05785870386f35b83518752958101959281019284016106b3565b825484529286019291870191870161067b565b606490848451917f08c379a0000000000000000000000000000000000000000000000000000000008352820152601160248201527f72657175657374206e6f7420666f756e640000000000000000000000000000006044820152fd5b50346101fc575f7ffffffffffffffffffffffffffffffffffffffffffffffffffffffffffffffffc3601126101fc5760209073ffffffffffffffffffffffffffffffffffffffff600254169051908152f35b50346101fc5760207ffffffffffffffffffffffffffffffffffffffffffffffffffffffffffffffffc3601126101fc5781359173ffffffffffffffffffffffffffffffffffffffff8084168094036101fc57805f54169081331415806108be575b61087e5750508215610857577fd1a6a14209a385a964d036e404cb5cfb71f4000cdb03c9366292430787261be660208484817fffffffffffffffffffffffff0000000000000000000000000000000000000000600254161760025551908152a1005b90517fd92e233d000000000000000000000000000000000000000000000000000000008152fd5b9060649391600254169151927f061db9c1000000000000000000000000000000000000000000000000000000008452339084015260248301526044820152fd5b5080600254163314156107f5565b50346101fc575f7ffffffffffffffffffffffffffffffffffffffffffffffffffffffffffffffffc3601126101fc5760209073ffffffffffffffffffffffffffffffffffffffff5f54169051908152f35b5090346101fc5760207ffffffffffffffffffffffffffffffffffffffffffffffffffffffffffffffffc3601126101fc5735906006548210156101fc57610965602092610d36565b91905490519160031b1c8152f35b50346101fc575f7ffffffffffffffffffffffffffffffffffffffffffffffffffffffffffffffffc3601126101fc576001549173ffffffffffffffffffffffffffffffffffffffff918284163303610a205750505f54917fffffffffffffffffffffffff00000000000000000000000000000000000000009033828516175f55166001553391167f8be0079c531659141344cd1fd0a4f28419497f9722a3daafe3b4186f6b6457e05f80a3005b90602060649251917f08c379a0000000000000000000000000000000000000000000000000000000008352820152601660248201527f4d7573742062652070726f706f736564206f776e6572000000000000000000006044820152fd5b50346101fc57807ffffffffffffffffffffffffffffffffffffffffffffffffffffffffffffffffc3601126101fc57813590602480359167ffffffffffffffff918284116101fc57366023850112156101fc57838601359283116101fc57808401958360051b94828636920101116101fc5773ffffffffffffffffffffffffffffffffffffffff60025416803303610ccb5750855f526020916007835260ff845f205460081c1615610c7157865f526007835260ff845f205416610c17575050845f5260078152600180835f2001610b558582610e3a565b87905f52825f20905f5b868110610c065750505050918181927f07ffffffffffffffffffffffffffffffffffffffffffffffffffffffffffffff94875f5260078152815f2060017fffffffffffffffffffffffffffffffffffffffffffffffffffffffffffffff008254161790558151978852870152850152116101fc5781816060927ffe2e2d779dba245964d4e3ef9b994be63856fd568bf7d3ca9e224755cb1bd54d95848401378101030190a1005b813583820155908401908301610b5f565b6019919260649451937f08c379a00000000000000000000000000000000000000000000000000000000085528401528201527f5265717565737420616c72656164792066756c66696c6c6564000000000000006044820152fd5b6016919260649451937f08c379a00000000000000000000000000000000000000000000000000000000085528401528201527f5265717565737420646f6573206e6f74206578697374000000000000000000006044820152fd5b6044928451927f1cf993f40000000000000000000000000000000000000000000000000000000084523390840152820152fd5b346101fc575f7ffffffffffffffffffffffffffffffffffffffffffffffffffffffffffffffffc3601126101fc576020906008548152f35b600654811015610d6b5760065f527ff652222313e28459528d920b65115c16c04f3efc82aaedc97be59f3f377c0d3f01905f90565b7f4e487b71000000000000000000000000000000000000000000000000000000005f52603260045260245ffd5b6060810190811067ffffffffffffffff821117610db457604052565b7f4e487b71000000000000000000000000000000000000000000000000000000005f52604160045260245ffd5b90601f7fffffffffffffffffffffffffffffffffffffffffffffffffffffffffffffffe0910116810190811067ffffffffffffffff821117610db457604052565b67ffffffffffffffff8111610db45760051b60200190565b90680100000000000000008111610db457815491818155828210610e5d57505050565b5f5260205f2091820191015b818110610e74575050565b5f8155600101610e6956fea264697066735822122050b37087a69ba16ab0bb8c066075a9e92805061e306ca6b68014bce8d402482864736f6c63430008180033",
          "opcodes": "PUSH1 0xA0 CALLVALUE PUSH2 0x136 JUMPI PUSH1 0x1F PUSH2 0x1004 CODESIZE DUP2 SWAP1 SUB SWAP2 DUP3 ADD PUSH1 0x1F NOT AND DUP4 ADD SWAP2 PUSH1 0x1 PUSH1 0x1 PUSH1 0x40 SHL SUB DUP4 GT DUP5 DUP5 LT OR PUSH2 0x13A JUMPI DUP1 DUP5 SWAP3 PUSH1 0x40 SWAP5 DUP6 MSTORE DUP4 CODECOPY DUP2 ADD SUB SLT PUSH2 0x136 JUMPI DUP1 MLOAD PUSH1 0x20 SWAP1 SWAP2 ADD MLOAD PUSH1 0x1 PUSH1 0x1 PUSH1 0xA0 SHL SUB DUP2 AND SWAP1 DUP2 SWAP1 SUB PUSH2 0x136 JUMPI CALLER ISZERO PUSH2 0xF1 JUMPI PUSH0 DUP1 SLOAD PUSH1 0x1 PUSH1 0x1 PUSH1 0xA0 SHL SUB NOT SWAP1 DUP2 AND CALLER OR SWAP1 SWAP2 SSTORE DUP2 ISZERO PUSH2 0xDF JUMPI PUSH1 0x2 DUP1 SLOAD SWAP1 SWAP2 AND DUP3 OR SWAP1 SSTORE PUSH32 0x787D74CAEA10B2B357790D5B5247C2F63D1D91572A9846F780606E4D953677AE PUSH1 0x4 SSTORE PUSH1 0x5 DUP1 SLOAD PUSH1 0x1 PUSH1 0x1 PUSH1 0x50 SHL SUB NOT AND PUSH9 0x186A0000300000001 OR SWAP1 SSTORE PUSH1 0x80 MSTORE PUSH1 0x3 SSTORE PUSH1 0x40 MLOAD PUSH2 0xEB5 SWAP1 DUP2 PUSH2 0x14F DUP3 CODECOPY PUSH1 0x80 MLOAD DUP2 PUSH2 0x375 ADD MSTORE RETURN JUMPDEST PUSH1 0x40 MLOAD PUSH4 0xD92E233D PUSH1 0xE0 SHL DUP2 MSTORE PUSH1 0x4 SWAP1 REVERT JUMPDEST PUSH1 0x40 MLOAD PUSH3 0x461BCD PUSH1 0xE5 SHL DUP2 MSTORE PUSH1 0x20 PUSH1 0x4 DUP3 ADD MSTORE PUSH1 0x18 PUSH1 0x24 DUP3 ADD MSTORE PUSH32 0x43616E6E6F7420736574206F776E657220746F207A65726F0000000000000000 PUSH1 0x44 DUP3 ADD MSTORE PUSH1 0x64 SWAP1 REVERT JUMPDEST PUSH0 DUP1 REVERT JUMPDEST PUSH4 0x4E487B71 PUSH1 0xE0 SHL PUSH0 MSTORE PUSH1 0x41 PUSH1 0x4 MSTORE PUSH1 0x24 PUSH0 REVERT INVALID PUSH1 0x80 PUSH1 0x40 DUP2 DUP2 MSTORE PUSH1 0x4 SWAP2 DUP3 CALLDATASIZE LT ISZERO PUSH2 0x15 JUMPI PUSH0 DUP1 REVERT JUMPDEST PUSH0 CALLDATALOAD PUSH1 0xE0 SHR SWAP1 DUP2 PUSH4 0x1AA46F59 EQ PUSH2 0xCFE JUMPI POP DUP1 PUSH4 0x1FE543E3 EQ PUSH2 0xA7D JUMPI DUP1 PUSH4 0x79BA5097 EQ PUSH2 0x973 JUMPI DUP1 PUSH4 0x8796BA8C EQ PUSH2 0x91D JUMPI DUP1 PUSH4 0x8DA5CB5B EQ PUSH2 0x8CC JUMPI DUP1 PUSH4 0x8EA98117 EQ PUSH2 0x794 JUMPI DUP1 PUSH4 0x9ECCACF6 EQ PUSH2 0x742 JUMPI DUP1 PUSH4 0xD8A4676F EQ PUSH2 0x5E8 JUMPI DUP1 PUSH4 0xDBDFF2C1 EQ PUSH2 0x200 JUMPI PUSH4 0xF2FDE38B EQ PUSH2 0x8D JUMPI PUSH0 DUP1 REVERT JUMPDEST CALLVALUE PUSH2 0x1FC JUMPI PUSH1 0x20 PUSH32 0xFFFFFFFFFFFFFFFFFFFFFFFFFFFFFFFFFFFFFFFFFFFFFFFFFFFFFFFFFFFFFFFC CALLDATASIZE ADD SLT PUSH2 0x1FC JUMPI DUP2 CALLDATALOAD SWAP2 PUSH20 0xFFFFFFFFFFFFFFFFFFFFFFFFFFFFFFFFFFFFFFFF DUP1 DUP5 AND DUP1 SWAP5 SUB PUSH2 0x1FC JUMPI PUSH0 SLOAD AND SWAP2 DUP3 CALLER SUB PUSH2 0x19F JUMPI CALLER DUP5 EQ PUSH2 0x142 JUMPI POP POP DUP2 PUSH32 0xFFFFFFFFFFFFFFFFFFFFFFFF0000000000000000000000000000000000000000 PUSH1 0x1 SLOAD AND OR PUSH1 0x1 SSTORE PUSH32 0xED8889F560326EB138920D842192F0EB3DD22B4F139C87A2C57538E05BAE1278 PUSH0 DUP1 LOG3 STOP JUMPDEST SWAP1 PUSH1 0x20 PUSH1 0x64 SWAP3 MLOAD SWAP2 PUSH32 0x8C379A000000000000000000000000000000000000000000000000000000000 DUP4 MSTORE DUP3 ADD MSTORE PUSH1 0x17 PUSH1 0x24 DUP3 ADD MSTORE PUSH32 0x43616E6E6F74207472616E7366657220746F2073656C66000000000000000000 PUSH1 0x44 DUP3 ADD MSTORE REVERT JUMPDEST SWAP1 PUSH1 0x20 PUSH1 0x64 SWAP3 MLOAD SWAP2 PUSH32 0x8C379A000000000000000000000000000000000000000000000000000000000 DUP4 MSTORE DUP3 ADD MSTORE PUSH1 0x16 PUSH1 0x24 DUP3 ADD MSTORE PUSH32 0x4F6E6C792063616C6C61626C65206279206F776E657200000000000000000000 PUSH1 0x44 DUP3 ADD MSTORE REVERT JUMPDEST PUSH0 DUP1 REVERT JUMPDEST POP SWAP1 CALLVALUE PUSH2 0x1FC JUMPI PUSH0 PUSH32 0xFFFFFFFFFFFFFFFFFFFFFFFFFFFFFFFFFFFFFFFFFFFFFFFFFFFFFFFFFFFFFFFC CALLDATASIZE ADD SLT PUSH2 0x1FC JUMPI DUP1 SLOAD SWAP2 PUSH1 0x3 SLOAD SWAP2 PUSH1 0x5 SLOAD SWAP1 PUSH2 0xFFFF SWAP5 PUSH1 0x20 SWAP6 PUSH4 0xFFFFFFFF SWAP4 DUP6 MLOAD SWAP2 PUSH1 0xC0 DUP4 ADD SWAP4 PUSH8 0xFFFFFFFFFFFFFFFF SWAP5 DUP5 DUP2 LT DUP7 DUP3 GT OR PUSH2 0x5BC JUMPI DUP9 MSTORE DUP4 MSTORE DUP9 DUP4 ADD SWAP8 DUP9 MSTORE DUP7 DUP4 ADD SWAP1 DUP1 DUP4 DUP12 SHR AND DUP3 MSTORE PUSH1 0x60 DUP5 ADD SWAP2 DUP8 DUP5 PUSH1 0x30 SHR AND DUP4 MSTORE DUP8 PUSH1 0x80 DUP7 ADD SWAP5 AND DUP5 MSTORE DUP9 MLOAD SWAP5 DUP12 DUP7 ADD DUP7 DUP2 LT DUP9 DUP3 GT OR PUSH2 0x590 JUMPI SWAP2 DUP10 SWAP6 SWAP5 SWAP3 SWAP12 DUP7 SWAP5 SWAP3 SWAP13 DUP13 MSTORE PUSH0 DUP9 MSTORE PUSH1 0xA0 DUP14 ADD SWAP8 DUP9 MSTORE DUP14 PUSH1 0x24 DUP14 MLOAD SWAP15 DUP16 SWAP3 PUSH32 0x9B1C385E00000000000000000000000000000000000000000000000000000000 DUP5 MSTORE DUP14 DUP5 ADD MSTORE MLOAD SWAP2 ADD MSTORE MLOAD PUSH1 0x44 DUP14 ADD MSTORE MLOAD AND PUSH1 0x64 DUP12 ADD MSTORE MLOAD AND PUSH1 0x84 DUP10 ADD MSTORE MLOAD AND PUSH1 0xA4 DUP8 ADD MSTORE MLOAD PUSH1 0xC0 PUSH1 0xC4 DUP8 ADD MSTORE DUP7 DUP7 DUP3 MLOAD DUP1 PUSH1 0xE4 DUP4 ADD MSTORE PUSH0 SWAP4 JUMPDEST DUP2 DUP6 LT PUSH2 0x576 JUMPI POP PUSH1 0x1F SWAP4 POP DUP2 PUSH2 0x104 SWAP2 PUSH0 DUP4 DUP3 DUP5 ADD ADD MSTORE PUSH32 0xFFFFFFFFFFFFFFFFFFFFFFFFFFFFFFFFFFFFFFFFFFFFFFFFFFFFFFFFFFFFFFE0 SWAP6 DUP7 SWAP2 ADD AND DUP2 ADD SUB ADD DUP2 PUSH0 PUSH20 0xFFFFFFFFFFFFFFFFFFFFFFFFFFFFFFFFFFFFFFFF PUSH32 0x0 AND GAS CALL SWAP6 DUP7 ISZERO PUSH2 0x56C JUMPI PUSH0 SWAP7 PUSH2 0x53D JUMPI JUMPDEST POP PUSH1 0x6 SLOAD SWAP3 PUSH9 0x10000000000000000 DUP5 LT ISZERO PUSH2 0x511 JUMPI PUSH2 0x3CD PUSH1 0x1 SWAP5 PUSH1 0x1 DUP2 ADD PUSH1 0x6 SSTORE PUSH2 0xD36 JUMP JUMPDEST DUP2 SLOAD SWAP1 PUSH1 0x3 SHL SWAP1 PUSH32 0xFFFFFFFFFFFFFFFFFFFFFFFFFFFFFFFFFFFFFFFFFFFFFFFFFFFFFFFFFFFFFFFF DUP11 DUP4 SHL SWAP3 SHL NOT AND OR SWAP1 SSTORE DUP7 PUSH1 0x8 SSTORE DUP5 PUSH1 0x5 SLOAD AND SWAP2 PUSH2 0x42A PUSH2 0x415 DUP5 PUSH2 0xE22 JUMP JUMPDEST SWAP4 PUSH2 0x422 DUP10 MLOAD SWAP6 DUP7 PUSH2 0xDE1 JUMP JUMPDEST DUP1 DUP6 MSTORE PUSH2 0xE22 JUMP JUMPDEST ADD CALLDATASIZE DUP10 DUP5 ADD CALLDATACOPY PUSH1 0x1 DUP7 MLOAD PUSH2 0x43D DUP2 PUSH2 0xD98 JUMP JUMPDEST PUSH0 DUP2 MSTORE DUP10 DUP2 ADD DUP3 DUP2 MSTORE DUP9 DUP3 ADD SWAP5 DUP6 MSTORE DUP10 PUSH0 MSTORE PUSH1 0x7 DUP12 MSTORE DUP9 PUSH0 KECCAK256 SWAP2 MLOAD ISZERO ISZERO SWAP1 PUSH32 0xFFFFFFFFFFFFFFFFFFFFFFFFFFFFFFFFFFFFFFFFFFFFFFFFFFFFFFFFFFFF0000 PUSH1 0xFF PUSH2 0xFF00 DUP6 SLOAD SWAP4 MLOAD ISZERO ISZERO PUSH1 0x8 SHL AND SWAP4 AND SWAP2 AND OR OR DUP2 SSTORE ADD SWAP2 MLOAD SWAP1 DUP2 MLOAD SWAP4 DUP5 GT PUSH2 0x511 JUMPI POP SWAP1 DUP8 DUP4 SWAP3 PUSH2 0x4B1 DUP9 SWAP7 SWAP6 DUP5 PUSH2 0xE3A JUMP JUMPDEST ADD SWAP1 PUSH0 MSTORE DUP8 PUSH0 KECCAK256 PUSH0 JUMPDEST DUP4 DUP2 LT PUSH2 0x4FD JUMPI POP POP POP POP POP PUSH32 0xCC58B13AD3EAB50626C6A6300B1D139CD6EBB1688A7CCED9461C2F7E762665EE SWAP2 PUSH1 0x5 SLOAD AND DUP2 MLOAD SWAP1 DUP6 DUP3 MSTORE DUP7 DUP3 ADD MSTORE LOG1 MLOAD SWAP1 DUP2 MSTORE RETURN JUMPDEST DUP3 MLOAD DUP2 DUP4 ADD SSTORE DUP8 SWAP6 POP SWAP2 DUP10 ADD SWAP2 DUP5 ADD PUSH2 0x4BA JUMP JUMPDEST PUSH1 0x41 SWAP1 PUSH32 0x4E487B7100000000000000000000000000000000000000000000000000000000 PUSH0 MSTORE MSTORE PUSH1 0x24 PUSH0 REVERT JUMPDEST SWAP1 SWAP6 POP DUP7 DUP2 DUP2 RETURNDATASIZE DUP4 GT PUSH2 0x565 JUMPI JUMPDEST PUSH2 0x555 DUP2 DUP4 PUSH2 0xDE1 JUMP JUMPDEST DUP2 ADD SUB SLT PUSH2 0x1FC JUMPI MLOAD SWAP5 PUSH0 PUSH2 0x3A5 JUMP JUMPDEST POP RETURNDATASIZE PUSH2 0x54B JUMP JUMPDEST DUP6 MLOAD RETURNDATASIZE PUSH0 DUP3 RETURNDATACOPY RETURNDATASIZE SWAP1 REVERT JUMPDEST DUP5 DUP2 ADD DUP5 ADD MLOAD DUP11 DUP7 ADD PUSH2 0x104 ADD MSTORE SWAP4 DUP4 ADD SWAP4 DUP10 SWAP3 POP PUSH2 0x31A JUMP JUMPDEST PUSH1 0x41 DUP10 PUSH32 0x4E487B7100000000000000000000000000000000000000000000000000000000 PUSH0 MSTORE MSTORE PUSH1 0x24 PUSH0 REVERT JUMPDEST PUSH1 0x41 DUP8 PUSH32 0x4E487B7100000000000000000000000000000000000000000000000000000000 PUSH0 MSTORE MSTORE PUSH1 0x24 PUSH0 REVERT JUMPDEST POP CALLVALUE PUSH2 0x1FC JUMPI PUSH1 0x20 SWAP2 DUP3 PUSH32 0xFFFFFFFFFFFFFFFFFFFFFFFFFFFFFFFFFFFFFFFFFFFFFFFFFFFFFFFFFFFFFFFC CALLDATASIZE ADD SLT PUSH2 0x1FC JUMPI DUP1 CALLDATALOAD SWAP1 DUP2 PUSH0 MSTORE PUSH1 0x7 DUP5 MSTORE PUSH1 0xFF DUP4 PUSH0 KECCAK256 SLOAD PUSH1 0x8 SHR AND ISZERO PUSH2 0x6E6 JUMPI POP PUSH0 MSTORE PUSH1 0x7 DUP3 MSTORE DUP1 PUSH0 KECCAK256 DUP2 MLOAD SWAP3 PUSH2 0x649 DUP5 PUSH2 0xD98 JUMP JUMPDEST PUSH1 0xFF DUP3 SLOAD DUP2 DUP2 AND ISZERO ISZERO DUP7 MSTORE PUSH1 0x8 SHR AND ISZERO ISZERO DUP2 DUP6 ADD MSTORE PUSH1 0x1 DUP1 SWAP3 ADD SWAP4 DUP4 MLOAD SWAP1 DUP2 DUP4 DUP8 SLOAD SWAP2 DUP3 DUP2 MSTORE ADD SWAP1 DUP2 SWAP8 PUSH0 MSTORE DUP5 PUSH0 KECCAK256 SWAP1 PUSH0 JUMPDEST DUP2 DUP2 LT PUSH2 0x6D3 JUMPI POP POP POP DUP3 PUSH2 0x691 SWAP2 SUB DUP4 PUSH2 0xDE1 JUMP JUMPDEST DUP2 DUP6 DUP3 ADD MSTORE MLOAD ISZERO ISZERO SWAP1 DUP5 MLOAD SWAP5 DUP1 DUP7 ADD SWAP3 DUP7 MSTORE DUP4 DUP7 ADD MSTORE MLOAD DUP1 SWAP2 MSTORE PUSH1 0x60 DUP5 ADD SWAP5 SWAP2 PUSH0 JUMPDEST DUP3 DUP2 LT PUSH2 0x6C0 JUMPI DUP6 DUP8 SUB DUP7 RETURN JUMPDEST DUP4 MLOAD DUP8 MSTORE SWAP6 DUP2 ADD SWAP6 SWAP3 DUP2 ADD SWAP3 DUP5 ADD PUSH2 0x6B3 JUMP JUMPDEST DUP3 SLOAD DUP5 MSTORE SWAP3 DUP7 ADD SWAP3 SWAP2 DUP8 ADD SWAP2 DUP8 ADD PUSH2 0x67B JUMP JUMPDEST PUSH1 0x64 SWAP1 DUP5 DUP5 MLOAD SWAP2 PUSH32 0x8C379A000000000000000000000000000000000000000000000000000000000 DUP4 MSTORE DUP3 ADD MSTORE PUSH1 0x11 PUSH1 0x24 DUP3 ADD MSTORE PUSH32 0x72657175657374206E6F7420666F756E64000000000000000000000000000000 PUSH1 0x44 DUP3 ADD MSTORE REVERT JUMPDEST POP CALLVALUE PUSH2 0x1FC JUMPI PUSH0 PUSH32 0xFFFFFFFFFFFFFFFFFFFFFFFFFFFFFFFFFFFFFFFFFFFFFFFFFFFFFFFFFFFFFFFC CALLDATASIZE ADD SLT PUSH2 0x1FC JUMPI PUSH1 0x20 SWAP1 PUSH20 0xFFFFFFFFFFFFFFFFFFFFFFFFFFFFFFFFFFFFFFFF PUSH1 0x2 SLOAD AND SWAP1 MLOAD SWAP1 DUP2 MSTORE RETURN JUMPDEST POP CALLVALUE PUSH2 0x1FC JUMPI PUSH1 0x20 PUSH32 0xFFFFFFFFFFFFFFFFFFFFFFFFFFFFFFFFFFFFFFFFFFFFFFFFFFFFFFFFFFFFFFFC CALLDATASIZE ADD SLT PUSH2 0x1FC JUMPI DUP2 CALLDATALOAD SWAP2 PUSH20 0xFFFFFFFFFFFFFFFFFFFFFFFFFFFFFFFFFFFFFFFF DUP1 DUP5 AND DUP1 SWAP5 SUB PUSH2 0x1FC JUMPI DUP1 PUSH0 SLOAD AND SWAP1 DUP2 CALLER EQ ISZERO DUP1 PUSH2 0x8BE JUMPI JUMPDEST PUSH2 0x87E JUMPI POP POP DUP3 ISZERO PUSH2 0x857 JUMPI PUSH32 0xD1A6A14209A385A964D036E404CB5CFB71F4000CDB03C9366292430787261BE6 PUSH1 0x20 DUP5 DUP5 DUP2 PUSH32 0xFFFFFFFFFFFFFFFFFFFFFFFF0000000000000000000000000000000000000000 PUSH1 0x2 SLOAD AND OR PUSH1 0x2 SSTORE MLOAD SWAP1 DUP2 MSTORE LOG1 STOP JUMPDEST SWAP1 MLOAD PUSH32 0xD92E233D00000000000000000000000000000000000000000000000000000000 DUP2 MSTORE REVERT JUMPDEST SWAP1 PUSH1 0x64 SWAP4 SWAP2 PUSH1 0x2 SLOAD AND SWAP2 MLOAD SWAP3 PUSH32 0x61DB9C100000000000000000000000000000000000000000000000000000000 DUP5 MSTORE CALLER SWAP1 DUP5 ADD MSTORE PUSH1 0x24 DUP4 ADD MSTORE PUSH1 0x44 DUP3 ADD MSTORE REVERT JUMPDEST POP DUP1 PUSH1 0x2 SLOAD AND CALLER EQ ISZERO PUSH2 0x7F5 JUMP JUMPDEST POP CALLVALUE PUSH2 0x1FC JUMPI PUSH0 PUSH32 0xFFFFFFFFFFFFFFFFFFFFFFFFFFFFFFFFFFFFFFFFFFFFFFFFFFFFFFFFFFFFFFFC CALLDATASIZE ADD SLT PUSH2 0x1FC JUMPI PUSH1 0x20 SWAP1 PUSH20 0xFFFFFFFFFFFFFFFFFFFFFFFFFFFFFFFFFFFFFFFF PUSH0 SLOAD AND SWAP1 MLOAD SWAP1 DUP2 MSTORE RETURN JUMPDEST POP SWAP1 CALLVALUE PUSH2 0x1FC JUMPI PUSH1 0x20 PUSH32 0xFFFFFFFFFFFFFFFFFFFFFFFFFFFFFFFFFFFFFFFFFFFFFFFFFFFFFFFFFFFFFFFC CALLDATASIZE ADD SLT PUSH2 0x1FC JUMPI CALLDATALOAD SWAP1 PUSH1 0x6 SLOAD DUP3 LT ISZERO PUSH2 0x1FC JUMPI PUSH2 0x965 PUSH1 0x20 SWAP3 PUSH2 0xD36 JUMP JUMPDEST SWAP2 SWAP1 SLOAD SWAP1 MLOAD SWAP2 PUSH1 0x3 SHL SHR DUP2 MSTORE RETURN JUMPDEST POP CALLVALUE PUSH2 0x1FC JUMPI PUSH0 PUSH32 0xFFFFFFFFFFFFFFFFFFFFFFFFFFFFFFFFFFFFFFFFFFFFFFFFFFFFFFFFFFFFFFFC CALLDATASIZE ADD SLT PUSH2 0x1FC JUMPI PUSH1 0x1 SLOAD SWAP2 PUSH20 0xFFFFFFFFFFFFFFFFFFFFFFFFFFFFFFFFFFFFFFFF SWAP2 DUP3 DUP5 AND CALLER SUB PUSH2 0xA20 JUMPI POP POP PUSH0 SLOAD SWAP2 PUSH32 0xFFFFFFFFFFFFFFFFFFFFFFFF0000000000000000000000000000000000000000 SWAP1 CALLER DUP3 DUP6 AND OR PUSH0 SSTORE AND PUSH1 0x1 SSTORE CALLER SWAP2 AND PUSH32 0x8BE0079C531659141344CD1FD0A4F28419497F9722A3DAAFE3B4186F6B6457E0 PUSH0 DUP1 LOG3 STOP JUMPDEST SWAP1 PUSH1 0x20 PUSH1 0x64 SWAP3 MLOAD SWAP2 PUSH32 0x8C379A000000000000000000000000000000000000000000000000000000000 DUP4 MSTORE DUP3 ADD MSTORE PUSH1 0x16 PUSH1 0x24 DUP3 ADD MSTORE PUSH32 0x4D7573742062652070726F706F736564206F776E657200000000000000000000 PUSH1 0x44 DUP3 ADD MSTORE REVERT JUMPDEST POP CALLVALUE PUSH2 0x1FC JUMPI DUP1 PUSH32 0xFFFFFFFFFFFFFFFFFFFFFFFFFFFFFFFFFFFFFFFFFFFFFFFFFFFFFFFFFFFFFFFC CALLDATASIZE ADD SLT PUSH2 0x1FC JUMPI DUP2 CALLDATALOAD SWAP1 PUSH1 0x24 DUP1 CALLDATALOAD SWAP2 PUSH8 0xFFFFFFFFFFFFFFFF SWAP2 DUP3 DUP5 GT PUSH2 0x1FC JUMPI CALLDATASIZE PUSH1 0x23 DUP6 ADD SLT ISZERO PUSH2 0x1FC JUMPI DUP4 DUP7 ADD CALLDATALOAD SWAP3 DUP4 GT PUSH2 0x1FC JUMPI DUP1 DUP5 ADD SWAP6 DUP4 PUSH1 0x5 SHL SWAP5 DUP3 DUP7 CALLDATASIZE SWAP3 ADD ADD GT PUSH2 0x1FC JUMPI PUSH20 0xFFFFFFFFFFFFFFFFFFFFFFFFFFFFFFFFFFFFFFFF PUSH1 0x2 SLOAD AND DUP1 CALLER SUB PUSH2 0xCCB JUMPI POP DUP6 PUSH0 MSTORE PUSH1 0x20 SWAP2 PUSH1 0x7 DUP4 MSTORE PUSH1 0xFF DUP5 PUSH0 KECCAK256 SLOAD PUSH1 0x8 SHR AND ISZERO PUSH2 0xC71 JUMPI DUP7 PUSH0 MSTORE PUSH1 0x7 DUP4 MSTORE PUSH1 0xFF DUP5 PUSH0 KECCAK256 SLOAD AND PUSH2 0xC17 JUMPI POP POP DUP5 PUSH0 MSTORE PUSH1 0x7 DUP2 MSTORE PUSH1 0x1 DUP1 DUP4 PUSH0 KECCAK256 ADD PUSH2 0xB55 DUP6 DUP3 PUSH2 0xE3A JUMP JUMPDEST DUP8 SWAP1 PUSH0 MSTORE DUP3 PUSH0 KECCAK256 SWAP1 PUSH0 JUMPDEST DUP7 DUP2 LT PUSH2 0xC06 JUMPI POP POP POP POP SWAP2 DUP2 DUP2 SWAP3 PUSH32 0x7FFFFFFFFFFFFFFFFFFFFFFFFFFFFFFFFFFFFFFFFFFFFFFFFFFFFFFFFFFFFFF SWAP5 DUP8 PUSH0 MSTORE PUSH1 0x7 DUP2 MSTORE DUP2 PUSH0 KECCAK256 PUSH1 0x1 PUSH32 0xFFFFFFFFFFFFFFFFFFFFFFFFFFFFFFFFFFFFFFFFFFFFFFFFFFFFFFFFFFFFFF00 DUP3 SLOAD AND OR SWAP1 SSTORE DUP2 MLOAD SWAP8 DUP9 MSTORE DUP8 ADD MSTORE DUP6 ADD MSTORE GT PUSH2 0x1FC JUMPI DUP2 DUP2 PUSH1 0x60 SWAP3 PUSH32 0xFE2E2D779DBA245964D4E3EF9B994BE63856FD568BF7D3CA9E224755CB1BD54D SWAP6 DUP5 DUP5 ADD CALLDATACOPY DUP2 ADD SUB ADD SWAP1 LOG1 STOP JUMPDEST DUP2 CALLDATALOAD DUP4 DUP3 ADD SSTORE SWAP1 DUP5 ADD SWAP1 DUP4 ADD PUSH2 0xB5F JUMP JUMPDEST PUSH1 0x19 SWAP2 SWAP3 PUSH1 0x64 SWAP5 MLOAD SWAP4 PUSH32 0x8C379A000000000000000000000000000000000000000000000000000000000 DUP6 MSTORE DUP5 ADD MSTORE DUP3 ADD MSTORE PUSH32 0x5265717565737420616C72656164792066756C66696C6C656400000000000000 PUSH1 0x44 DUP3 ADD MSTORE REVERT JUMPDEST PUSH1 0x16 SWAP2 SWAP3 PUSH1 0x64 SWAP5 MLOAD SWAP4 PUSH32 0x8C379A000000000000000000000000000000000000000000000000000000000 DUP6 MSTORE DUP5 ADD MSTORE DUP3 ADD MSTORE PUSH32 0x5265717565737420646F6573206E6F7420657869737400000000000000000000 PUSH1 0x44 DUP3 ADD MSTORE REVERT JUMPDEST PUSH1 0x44 SWAP3 DUP5 MLOAD SWAP3 PUSH32 0x1CF993F400000000000000000000000000000000000000000000000000000000 DUP5 MSTORE CALLER SWAP1 DUP5 ADD MSTORE DUP3 ADD MSTORE REVERT JUMPDEST CALLVALUE PUSH2 0x1FC JUMPI PUSH0 PUSH32 0xFFFFFFFFFFFFFFFFFFFFFFFFFFFFFFFFFFFFFFFFFFFFFFFFFFFFFFFFFFFFFFFC CALLDATASIZE ADD SLT PUSH2 0x1FC JUMPI PUSH1 0x20 SWAP1 PUSH1 0x8 SLOAD DUP2 MSTORE RETURN JUMPDEST PUSH1 0x6 SLOAD DUP2 LT ISZERO PUSH2 0xD6B JUMPI PUSH1 0x6 PUSH0 MSTORE PUSH32 0xF652222313E28459528D920B65115C16C04F3EFC82AAEDC97BE59F3F377C0D3F ADD SWAP1 PUSH0 SWAP1 JUMP JUMPDEST PUSH32 0x4E487B7100000000000000000000000000000000000000000000000000000000 PUSH0 MSTORE PUSH1 0x32 PUSH1 0x4 MSTORE PUSH1 0x24 PUSH0 REVERT JUMPDEST PUSH1 0x60 DUP2 ADD SWAP1 DUP2 LT PUSH8 0xFFFFFFFFFFFFFFFF DUP3 GT OR PUSH2 0xDB4 JUMPI PUSH1 0x40 MSTORE JUMP JUMPDEST PUSH32 0x4E487B7100000000000000000000000000000000000000000000000000000000 PUSH0 MSTORE PUSH1 0x41 PUSH1 0x4 MSTORE PUSH1 0x24 PUSH0 REVERT JUMPDEST SWAP1 PUSH1 0x1F PUSH32 0xFFFFFFFFFFFFFFFFFFFFFFFFFFFFFFFFFFFFFFFFFFFFFFFFFFFFFFFFFFFFFFE0 SWAP2 ADD AND DUP2 ADD SWAP1 DUP2 LT PUSH8 0xFFFFFFFFFFFFFFFF DUP3 GT OR PUSH2 0xDB4 JUMPI PUSH1 0x40 MSTORE JUMP JUMPDEST PUSH8 0xFFFFFFFFFFFFFFFF DUP2 GT PUSH2 0xDB4 JUMPI PUSH1 0x5 SHL PUSH1 0x20 ADD SWAP1 JUMP JUMPDEST SWAP1 PUSH9 0x10000000000000000 DUP2 GT PUSH2 0xDB4 JUMPI DUP2 SLOAD SWAP2 DUP2 DUP2 SSTORE DUP3 DUP3 LT PUSH2 0xE5D JUMPI POP POP POP JUMP JUMPDEST PUSH0 MSTORE PUSH1 0x20 PUSH0 KECCAK256 SWAP2 DUP3 ADD SWAP2 ADD JUMPDEST DUP2 DUP2 LT PUSH2 0xE74 JUMPI POP POP JUMP JUMPDEST PUSH0 DUP2 SSTORE PUSH1 0x1 ADD PUSH2 0xE69 JUMP INVALID LOG2 PUSH5 0x6970667358 0x22 SLT KECCAK256 POP 0xB3 PUSH17 0x87A69BA16AB0BB8C066075A9E92805061E ADDRESS PUSH13 0xA6B68014BCE8D402482864736F PUSH13 0x63430008180033000000000000 "
        },
        "methodIdentifiers": {
          "acceptOwnership()": "79ba5097",
          "getRandomNumber()": "dbdff2c1",
          "getRequestStatus(uint256)": "d8a4676f",
          "latestRequestId()": "1aa46f59",
          "owner()": "8da5cb5b",
          "rawFulfillRandomWords(uint256,uint256[])": "1fe543e3",
          "requestIds(uint256)": "8796ba8c",
          "s_vrfCoordinator()": "9eccacf6",
          "setCoordinator(address)": "8ea98117",
          "transferOwnership(address)": "f2fde38b"
        }
      }
    }
  }
}