{
  "_format": "hh-sol-artifact-1",
  "contractName": "TGame",
  "sourceName": "contracts/TGame.sol",
  "abi": [
    {
      "inputs": [],
      "stateMutability": "nonpayable",
      "type": "constructor"
    },
    {
      "inputs": [
        {
          "internalType": "address",
          "name": "sender",
          "type": "address"
        },
        {
          "internalType": "uint256",
          "name": "balance",
          "type": "uint256"
        },
        {
          "internalType": "uint256",
          "name": "needed",
          "type": "uint256"
        },
        {
          "internalType": "uint256",
          "name": "tokenId",
          "type": "uint256"
        }
      ],
      "name": "ERC1155InsufficientBalance",
      "type": "error"
    },
    {
      "inputs": [
        {
          "internalType": "uint256",
          "name": "idsLength",
          "type": "uint256"
        },
        {
          "internalType": "uint256",
          "name": "valuesLength",
          "type": "uint256"
        }
      ],
      "name": "ERC1155InvalidArrayLength",
      "type": "error"
    },
    {
      "inputs": [
        {
          "internalType": "address",
          "name": "operator",
          "type": "address"
        }
      ],
      "name": "ERC1155InvalidOperator",
      "type": "error"
    },
    {
      "inputs": [
        {
          "internalType": "address",
          "name": "receiver",
          "type": "address"
        }
      ],
      "name": "ERC1155InvalidReceiver",
      "type": "error"
    },
    {
      "inputs": [
        {
          "internalType": "address",
          "name": "sender",
          "type": "address"
        }
      ],
      "name": "ERC1155InvalidSender",
      "type": "error"
    },
    {
      "inputs": [
        {
          "internalType": "address",
          "name": "operator",
          "type": "address"
        },
        {
          "internalType": "address",
          "name": "owner",
          "type": "address"
        }
      ],
      "name": "ERC1155MissingApprovalForAll",
      "type": "error"
    },
    {
      "inputs": [
        {
          "internalType": "address",
          "name": "owner",
          "type": "address"
        }
      ],
      "name": "OwnableInvalidOwner",
      "type": "error"
    },
    {
      "inputs": [
        {
          "internalType": "address",
          "name": "account",
          "type": "address"
        }
      ],
      "name": "OwnableUnauthorizedAccount",
      "type": "error"
    },
    {
      "anonymous": false,
      "inputs": [
        {
          "indexed": true,
          "internalType": "address",
          "name": "account",
          "type": "address"
        },
        {
          "indexed": true,
          "internalType": "address",
          "name": "operator",
          "type": "address"
        },
        {
          "indexed": false,
          "internalType": "bool",
          "name": "approved",
          "type": "bool"
        }
      ],
      "name": "ApprovalForAll",
      "type": "event"
    },
    {
      "anonymous": false,
      "inputs": [
        {
          "indexed": true,
          "internalType": "address",
          "name": "previousOwner",
          "type": "address"
        },
        {
          "indexed": true,
          "internalType": "address",
          "name": "newOwner",
          "type": "address"
        }
      ],
      "name": "OwnershipTransferred",
      "type": "event"
    },
    {
      "anonymous": false,
      "inputs": [
        {
          "indexed": true,
          "internalType": "address",
          "name": "operator",
          "type": "address"
        },
        {
          "indexed": true,
          "internalType": "address",
          "name": "from",
          "type": "address"
        },
        {
          "indexed": true,
          "internalType": "address",
          "name": "to",
          "type": "address"
        },
        {
          "indexed": false,
          "internalType": "uint256[]",
          "name": "ids",
          "type": "uint256[]"
        },
        {
          "indexed": false,
          "internalType": "uint256[]",
          "name": "values",
          "type": "uint256[]"
        }
      ],
      "name": "TransferBatch",
      "type": "event"
    },
    {
      "anonymous": false,
      "inputs": [
        {
          "indexed": true,
          "internalType": "address",
          "name": "operator",
          "type": "address"
        },
        {
          "indexed": true,
          "internalType": "address",
          "name": "from",
          "type": "address"
        },
        {
          "indexed": true,
          "internalType": "address",
          "name": "to",
          "type": "address"
        },
        {
          "indexed": false,
          "internalType": "uint256",
          "name": "id",
          "type": "uint256"
        },
        {
          "indexed": false,
          "internalType": "uint256",
          "name": "value",
          "type": "uint256"
        }
      ],
      "name": "TransferSingle",
      "type": "event"
    },
    {
      "anonymous": false,
      "inputs": [
        {
          "indexed": false,
          "internalType": "string",
          "name": "value",
          "type": "string"
        },
        {
          "indexed": true,
          "internalType": "uint256",
          "name": "id",
          "type": "uint256"
        }
      ],
      "name": "URI",
      "type": "event"
    },
    {
      "inputs": [
        {
          "internalType": "address",
          "name": "account",
          "type": "address"
        },
        {
          "internalType": "uint256",
          "name": "id",
          "type": "uint256"
        }
      ],
      "name": "balanceOf",
      "outputs": [
        {
          "internalType": "uint256",
          "name": "",
          "type": "uint256"
        }
      ],
      "stateMutability": "view",
      "type": "function"
    },
    {
      "inputs": [
        {
          "internalType": "address[]",
          "name": "accounts",
          "type": "address[]"
        },
        {
          "internalType": "uint256[]",
          "name": "ids",
          "type": "uint256[]"
        }
      ],
      "name": "balanceOfBatch",
      "outputs": [
        {
          "internalType": "uint256[]",
          "name": "",
          "type": "uint256[]"
        }
      ],
      "stateMutability": "view",
      "type": "function"
    },
    {
      "inputs": [],
      "name": "baseURI",
      "outputs": [
        {
          "internalType": "string",
          "name": "",
          "type": "string"
        }
      ],
      "stateMutability": "view",
      "type": "function"
    },
    {
      "inputs": [
        {
          "internalType": "address",
          "name": "from",
          "type": "address"
        },
        {
          "internalType": "uint256",
          "name": "id",
          "type": "uint256"
        },
        {
          "internalType": "uint256",
          "name": "amount",
          "type": "uint256"
        }
      ],
      "name": "burn",
      "outputs": [],
      "stateMutability": "nonpayable",
      "type": "function"
    },
    {
      "inputs": [
        {
          "internalType": "address",
          "name": "from",
          "type": "address"
        },
        {
          "internalType": "uint256[]",
          "name": "ids",
          "type": "uint256[]"
        },
        {
          "internalType": "uint256[]",
          "name": "amounts",
          "type": "uint256[]"
        }
      ],
      "name": "burnBatch",
      "outputs": [],
      "stateMutability": "nonpayable",
      "type": "function"
    },
    {
      "inputs": [
        {
          "internalType": "address",
          "name": "account",
          "type": "address"
        },
        {
          "internalType": "address",
          "name": "operator",
          "type": "address"
        }
      ],
      "name": "isApprovedForAll",
      "outputs": [
        {
          "internalType": "bool",
          "name": "",
          "type": "bool"
        }
      ],
      "stateMutability": "view",
      "type": "function"
    },
    {
      "inputs": [
        {
          "internalType": "address",
          "name": "to",
          "type": "address"
        },
        {
          "internalType": "uint256",
          "name": "id",
          "type": "uint256"
        },
        {
          "internalType": "uint256",
          "name": "amount",
          "type": "uint256"
        }
      ],
      "name": "mint",
      "outputs": [],
      "stateMutability": "nonpayable",
      "type": "function"
    },
    {
      "inputs": [
        {
          "internalType": "address",
          "name": "to",
          "type": "address"
        },
        {
          "internalType": "uint256[]",
          "name": "ids",
          "type": "uint256[]"
        },
        {
          "internalType": "uint256[]",
          "name": "amounts",
          "type": "uint256[]"
        }
      ],
      "name": "mintBatch",
      "outputs": [],
      "stateMutability": "nonpayable",
      "type": "function"
    },
    {
      "inputs": [],
      "name": "owner",
      "outputs": [
        {
          "internalType": "address",
          "name": "",
          "type": "address"
        }
      ],
      "stateMutability": "view",
      "type": "function"
    },
    {
      "inputs": [],
      "name": "renounceOwnership",
      "outputs": [],
      "stateMutability": "nonpayable",
      "type": "function"
    },
    {
      "inputs": [
        {
          "internalType": "address",
          "name": "from",
          "type": "address"
        },
        {
          "internalType": "address",
          "name": "to",
          "type": "address"
        },
        {
          "internalType": "uint256[]",
          "name": "ids",
          "type": "uint256[]"
        },
        {
          "internalType": "uint256[]",
          "name": "amounts",
          "type": "uint256[]"
        },
        {
          "internalType": "bytes",
          "name": "data",
          "type": "bytes"
        }
      ],
      "name": "safeBatchTransferFrom",
      "outputs": [],
      "stateMutability": "nonpayable",
      "type": "function"
    },
    {
      "inputs": [
        {
          "internalType": "address",
          "name": "from",
          "type": "address"
        },
        {
          "internalType": "address",
          "name": "to",
          "type": "address"
        },
        {
          "internalType": "uint256",
          "name": "id",
          "type": "uint256"
        },
        {
          "internalType": "uint256",
          "name": "amount",
          "type": "uint256"
        },
        {
          "internalType": "bytes",
          "name": "data",
          "type": "bytes"
        }
      ],
      "name": "safeTransferFrom",
      "outputs": [],
      "stateMutability": "nonpayable",
      "type": "function"
    },
    {
      "inputs": [
        {
          "internalType": "address",
          "name": "operator",
          "type": "address"
        },
        {
          "internalType": "bool",
          "name": "_approved",
          "type": "bool"
        }
      ],
      "name": "setApprovalForAll",
      "outputs": [],
      "stateMutability": "nonpayable",
      "type": "function"
    },
    {
      "inputs": [
        {
          "internalType": "bytes4",
          "name": "interfaceId",
          "type": "bytes4"
        }
      ],
      "name": "supportsInterface",
      "outputs": [
        {
          "internalType": "bool",
          "name": "",
          "type": "bool"
        }
      ],
      "stateMutability": "view",
      "type": "function"
    },
    {
      "inputs": [
        {
          "internalType": "address",
          "name": "newOwner",
          "type": "address"
        }
      ],
      "name": "transferOwnership",
      "outputs": [],
      "stateMutability": "nonpayable",
      "type": "function"
    },
    {
      "inputs": [
        {
          "internalType": "uint256",
          "name": "id",
          "type": "uint256"
        }
      ],
      "name": "uri",
      "outputs": [
        {
          "internalType": "string",
          "name": "",
          "type": "string"
        }
      ],
      "stateMutability": "pure",
      "type": "function"
    }
  ],
  "bytecode": "0x608060405234801561000f575f80fd5b50338061003557604051631e4fbdf760e01b81525f600482015260240160405180910390fd5b61003e81610044565b50610093565b5f80546001600160a01b038381166001600160a01b0319831681178455604051919092169283917f8be0079c531659141344cd1fd0a4f28419497f9722a3daafe3b4186f6b6457e09190a35050565b6121b7806100a05f395ff3fe608060405234801561000f575f80fd5b50600436106100fa575f3560e01c8063715018a611610093578063e985e9c511610063578063e985e9c514610253578063f242432a1461029b578063f2fde38b146102ae578063f5298aca146102c1575f80fd5b8063715018a6146101fe5780638da5cb5b14610206578063a22cb4651461022d578063d81d0a1514610240575f80fd5b80632eb2c2d6116100ce5780632eb2c2d61461017c5780634e1273f41461018f5780636b20c454146101af5780636c0360eb146101c2575f80fd5b8062fdd58e146100fe57806301ffc9a7146101245780630e89341c14610147578063156e29f614610167575b5f80fd5b61011161010c366004611a8c565b6102d4565b6040519081526020015b60405180910390f35b610137610132366004611ae1565b61030a565b604051901515815260200161011b565b61015a610155366004611afc565b6103ea565b60405161011b9190611b35565b61017a610175366004611b85565b610452565b005b61017a61018a366004611c3b565b610561565b6101a261019d366004611cee565b610759565b60405161011b9190611d55565b61017a6101bd366004611d98565b6108aa565b61015a6040518060400160405280601881526020017f68747470733a2f2f6578616d706c652e636f6d2f6170692f000000000000000081525081565b61017a610ba6565b5f5460405173ffffffffffffffffffffffffffffffffffffffff909116815260200161011b565b61017a61023b366004611e13565b610bb9565b61017a61024e366004611d98565b610d05565b610137610261366004611e4c565b73ffffffffffffffffffffffffffffffffffffffff9182165f90815260026020908152604080832093909416825291909152205460ff1690565b61017a6102a9366004611e7d565b610ed3565b61017a6102bc366004611ef0565b611017565b61017a6102cf366004611b85565b61107a565b5f81815260016020908152604080832073ffffffffffffffffffffffffffffffffffffffff861684529091529020545b92915050565b5f7fffffffff0000000000000000000000000000000000000000000000000000000082167fd9b67a2600000000000000000000000000000000000000000000000000000000148061039c57507fffffffff0000000000000000000000000000000000000000000000000000000082167f0e89341c00000000000000000000000000000000000000000000000000000000145b806103045750507fffffffff00000000000000000000000000000000000000000000000000000000167f01ffc9a7000000000000000000000000000000000000000000000000000000001490565b60606040518060400160405280601881526020017f68747470733a2f2f6578616d706c652e636f6d2f6170692f000000000000000081525061042b8361121b565b60405160200161043c929190611f09565b6040516020818303038152906040529050919050565b61045a6112d7565b73ffffffffffffffffffffffffffffffffffffffff83166104c4576040517f57f447ce00000000000000000000000000000000000000000000000000000000815273ffffffffffffffffffffffffffffffffffffffff841660048201526024015b60405180910390fd5b5f82815260016020908152604080832073ffffffffffffffffffffffffffffffffffffffff8716845290915281208054839290610502908490611f64565b9091555050604080518381526020810183905273ffffffffffffffffffffffffffffffffffffffff8516915f9133917fc3d58168c5ae7397731d063d5bbf3d657854427343f4c083240f7aacaa2d0f62910160405180910390a4505050565b8483146105a4576040517f5b05999100000000000000000000000000000000000000000000000000000000815260048101869052602481018490526044016104bb565b73ffffffffffffffffffffffffffffffffffffffff8816610609576040517f01a8351400000000000000000000000000000000000000000000000000000000815273ffffffffffffffffffffffffffffffffffffffff891660048201526024016104bb565b73ffffffffffffffffffffffffffffffffffffffff871661066e576040517f57f447ce00000000000000000000000000000000000000000000000000000000815273ffffffffffffffffffffffffffffffffffffffff881660048201526024016104bb565b5f5b858110156106bc576106b4898989898581811061068f5761068f611f77565b905060200201358888868181106106a8576106a8611f77565b90506020020135611329565b600101610670565b508673ffffffffffffffffffffffffffffffffffffffff168873ffffffffffffffffffffffffffffffffffffffff163373ffffffffffffffffffffffffffffffffffffffff167f4a39dc06d4c0dbc64b70af90fd698a233a518aa5d07e595d983b8c0526c8f7fb898989896040516107379493929190611fed565b60405180910390a461074f88888888888888886114aa565b5050505050505050565b606083821461079e576040517f5b05999100000000000000000000000000000000000000000000000000000000815260048101839052602481018590526044016104bb565b835f8167ffffffffffffffff8111156107b9576107b961201e565b6040519080825280602002602001820160405280156107e2578160200160208202803683370190505b5090505f5b8281101561089f5760015f87878481811061080457610804611f77565b9050602002013581526020019081526020015f205f89898481811061082b5761082b611f77565b90506020020160208101906108409190611ef0565b73ffffffffffffffffffffffffffffffffffffffff1673ffffffffffffffffffffffffffffffffffffffff1681526020019081526020015f205482828151811061088c5761088c611f77565b60209081029190910101526001016107e7565b509695505050505050565b6108b26112d7565b8281146108f5576040517f5b05999100000000000000000000000000000000000000000000000000000000815260048101849052602481018290526044016104bb565b73ffffffffffffffffffffffffffffffffffffffff851661095a576040517f01a8351400000000000000000000000000000000000000000000000000000000815273ffffffffffffffffffffffffffffffffffffffff861660048201526024016104bb565b825f5b81811015610b1b575f60015f88888581811061097b5761097b611f77565b9050602002013581526020019081526020015f205f8973ffffffffffffffffffffffffffffffffffffffff1673ffffffffffffffffffffffffffffffffffffffff1681526020019081526020015f205490508484838181106109df576109df611f77565b90506020020135811015610a82578781868685818110610a0157610a01611f77565b90506020020135898986818110610a1a57610a1a611f77565b6040517f03dee4c500000000000000000000000000000000000000000000000000000000815273ffffffffffffffffffffffffffffffffffffffff909616600487015260248601949094525060448401919091526020909102013560648201526084016104bb565b848483818110610a9457610a94611f77565b9050602002013560015f898986818110610ab057610ab0611f77565b9050602002013581526020019081526020015f205f8a73ffffffffffffffffffffffffffffffffffffffff1673ffffffffffffffffffffffffffffffffffffffff1681526020019081526020015f205f828254610b0d919061204b565b90915550505060010161095d565b505f73ffffffffffffffffffffffffffffffffffffffff168673ffffffffffffffffffffffffffffffffffffffff163373ffffffffffffffffffffffffffffffffffffffff167f4a39dc06d4c0dbc64b70af90fd698a233a518aa5d07e595d983b8c0526c8f7fb88888888604051610b969493929190611fed565b60405180910390a4505050505050565b610bae6112d7565b610bb75f6116aa565b565b73ffffffffffffffffffffffffffffffffffffffff8216610c1e576040517fced3e10000000000000000000000000000000000000000000000000000000000815273ffffffffffffffffffffffffffffffffffffffff831660048201526024016104bb565b3373ffffffffffffffffffffffffffffffffffffffff831603610c6f576040517fced3e1000000000000000000000000000000000000000000000000000000000081523360048201526024016104bb565b335f81815260026020908152604080832073ffffffffffffffffffffffffffffffffffffffff87168085529083529281902080547fffffffffffffffffffffffffffffffffffffffffffffffffffffffffffffff001686151590811790915590519081529192917f17307eab39ab6107e8899845ad3d59bd9653f200f220920489ca2b5937696c31910160405180910390a35050565b610d0d6112d7565b828114610d50576040517f5b05999100000000000000000000000000000000000000000000000000000000815260048101849052602481018290526044016104bb565b73ffffffffffffffffffffffffffffffffffffffff8516610db5576040517f57f447ce00000000000000000000000000000000000000000000000000000000815273ffffffffffffffffffffffffffffffffffffffff861660048201526024016104bb565b825f5b81811015610e5857838382818110610dd257610dd2611f77565b9050602002013560015f888885818110610dee57610dee611f77565b9050602002013581526020019081526020015f205f8973ffffffffffffffffffffffffffffffffffffffff1673ffffffffffffffffffffffffffffffffffffffff1681526020019081526020015f205f828254610e4b9190611f64565b9091555050600101610db8565b508573ffffffffffffffffffffffffffffffffffffffff165f73ffffffffffffffffffffffffffffffffffffffff163373ffffffffffffffffffffffffffffffffffffffff167f4a39dc06d4c0dbc64b70af90fd698a233a518aa5d07e595d983b8c0526c8f7fb88888888604051610b969493929190611fed565b73ffffffffffffffffffffffffffffffffffffffff8616610f38576040517f01a8351400000000000000000000000000000000000000000000000000000000815273ffffffffffffffffffffffffffffffffffffffff871660048201526024016104bb565b73ffffffffffffffffffffffffffffffffffffffff8516610f9d576040517f57f447ce00000000000000000000000000000000000000000000000000000000815273ffffffffffffffffffffffffffffffffffffffff861660048201526024016104bb565b610fa986868686611329565b604080518581526020810185905273ffffffffffffffffffffffffffffffffffffffff808816929089169133917fc3d58168c5ae7397731d063d5bbf3d657854427343f4c083240f7aacaa2d0f62910160405180910390a461100f86868686868661171e565b505050505050565b61101f6112d7565b73ffffffffffffffffffffffffffffffffffffffff811661106e576040517f1e4fbdf70000000000000000000000000000000000000000000000000000000081525f60048201526024016104bb565b611077816116aa565b50565b6110826112d7565b73ffffffffffffffffffffffffffffffffffffffff83166110e7576040517f01a8351400000000000000000000000000000000000000000000000000000000815273ffffffffffffffffffffffffffffffffffffffff841660048201526024016104bb565b5f82815260016020908152604080832073ffffffffffffffffffffffffffffffffffffffff871684529091529020548181101561117d576040517f03dee4c500000000000000000000000000000000000000000000000000000000815273ffffffffffffffffffffffffffffffffffffffff851660048201526024810182905260448101839052606481018490526084016104bb565b5f83815260016020908152604080832073ffffffffffffffffffffffffffffffffffffffff88168452909152812080548492906111bb90849061204b565b909155505060408051848152602081018490525f9173ffffffffffffffffffffffffffffffffffffffff87169133917fc3d58168c5ae7397731d063d5bbf3d657854427343f4c083240f7aacaa2d0f62910160405180910390a450505050565b60605f61122783611910565b60010190505f8167ffffffffffffffff8111156112465761124661201e565b6040519080825280601f01601f191660200182016040528015611270576020820181803683370190505b5090508181016020015b7fffffffffffffffffffffffffffffffffffffffffffffffffffffffffffffffff017f3031323334353637383961626364656600000000000000000000000000000000600a86061a8153600a850494508461127a57509392505050565b5f5473ffffffffffffffffffffffffffffffffffffffff163314610bb7576040517f118cdaa70000000000000000000000000000000000000000000000000000000081523360048201526024016104bb565b5f82815260016020908152604080832073ffffffffffffffffffffffffffffffffffffffff88168452909152902054818110156113bf576040517f03dee4c500000000000000000000000000000000000000000000000000000000815273ffffffffffffffffffffffffffffffffffffffff861660048201526024810182905260448101839052606481018490526084016104bb565b6113c985336119f1565b61141d576040517fe237d92200000000000000000000000000000000000000000000000000000000815233600482015273ffffffffffffffffffffffffffffffffffffffff861660248201526044016104bb565b5f83815260016020908152604080832073ffffffffffffffffffffffffffffffffffffffff891684529091528120805484929061145b90849061204b565b90915550505f83815260016020908152604080832073ffffffffffffffffffffffffffffffffffffffff881684529091528120805484929061149e908490611f64565b90915550505050505050565b73ffffffffffffffffffffffffffffffffffffffff87163b1561074f576040517fbc197c8100000000000000000000000000000000000000000000000000000000815273ffffffffffffffffffffffffffffffffffffffff88169063bc197c81906115279033908c908b908b908b908b908b908b906004016120a5565b6020604051808303815f875af192505050801561157f575060408051601f3d9081017fffffffffffffffffffffffffffffffffffffffffffffffffffffffffffffffe016820190925261157c91810190612115565b60015b61160c573d8080156115ac576040519150601f19603f3d011682016040523d82523d5f602084013e6115b1565b606091505b5080515f03611604576040517f57f447ce00000000000000000000000000000000000000000000000000000000815273ffffffffffffffffffffffffffffffffffffffff891660048201526024016104bb565b805181602001fd5b7fffffffff0000000000000000000000000000000000000000000000000000000081167fbc197c81000000000000000000000000000000000000000000000000000000001461169f576040517f57f447ce00000000000000000000000000000000000000000000000000000000815273ffffffffffffffffffffffffffffffffffffffff891660048201526024016104bb565b505050505050505050565b5f805473ffffffffffffffffffffffffffffffffffffffff8381167fffffffffffffffffffffffff0000000000000000000000000000000000000000831681178455604051919092169283917f8be0079c531659141344cd1fd0a4f28419497f9722a3daafe3b4186f6b6457e09190a35050565b73ffffffffffffffffffffffffffffffffffffffff85163b1561100f576040517ff23a6e6100000000000000000000000000000000000000000000000000000000815273ffffffffffffffffffffffffffffffffffffffff86169063f23a6e61906117979033908a908990899089908990600401612130565b6020604051808303815f875af19250505080156117ef575060408051601f3d9081017fffffffffffffffffffffffffffffffffffffffffffffffffffffffffffffffe01682019092526117ec91810190612115565b60015b611874573d80801561181c576040519150601f19603f3d011682016040523d82523d5f602084013e611821565b606091505b5080515f03611604576040517f57f447ce00000000000000000000000000000000000000000000000000000000815273ffffffffffffffffffffffffffffffffffffffff871660048201526024016104bb565b7fffffffff0000000000000000000000000000000000000000000000000000000081167ff23a6e610000000000000000000000000000000000000000000000000000000014611907576040517f57f447ce00000000000000000000000000000000000000000000000000000000815273ffffffffffffffffffffffffffffffffffffffff871660048201526024016104bb565b50505050505050565b5f807a184f03e93ff9f4daa797ed6e38ed64bf6a1f0100000000000000008310611958577a184f03e93ff9f4daa797ed6e38ed64bf6a1f010000000000000000830492506040015b6d04ee2d6d415b85acef81000000008310611984576d04ee2d6d415b85acef8100000000830492506020015b662386f26fc1000083106119a257662386f26fc10000830492506010015b6305f5e10083106119ba576305f5e100830492506008015b61271083106119ce57612710830492506004015b606483106119e0576064830492506002015b600a83106103045760010192915050565b5f8173ffffffffffffffffffffffffffffffffffffffff168373ffffffffffffffffffffffffffffffffffffffff161480611a5d575073ffffffffffffffffffffffffffffffffffffffff8084165f9081526002602090815260408083209386168352929052205460ff165b9392505050565b803573ffffffffffffffffffffffffffffffffffffffff81168114611a87575f80fd5b919050565b5f8060408385031215611a9d575f80fd5b611aa683611a64565b946020939093013593505050565b7fffffffff0000000000000000000000000000000000000000000000000000000081168114611077575f80fd5b5f60208284031215611af1575f80fd5b8135611a5d81611ab4565b5f60208284031215611b0c575f80fd5b5035919050565b5f5b83811015611b2d578181015183820152602001611b15565b50505f910152565b602081525f8251806020840152611b53816040850160208701611b13565b601f017fffffffffffffffffffffffffffffffffffffffffffffffffffffffffffffffe0169190910160400192915050565b5f805f60608486031215611b97575f80fd5b611ba084611a64565b95602085013595506040909401359392505050565b5f8083601f840112611bc5575f80fd5b50813567ffffffffffffffff811115611bdc575f80fd5b6020830191508360208260051b8501011115611bf6575f80fd5b9250929050565b5f8083601f840112611c0d575f80fd5b50813567ffffffffffffffff811115611c24575f80fd5b602083019150836020828501011115611bf6575f80fd5b5f805f805f805f8060a0898b031215611c52575f80fd5b611c5b89611a64565b9750611c6960208a01611a64565b9650604089013567ffffffffffffffff80821115611c85575f80fd5b611c918c838d01611bb5565b909850965060608b0135915080821115611ca9575f80fd5b611cb58c838d01611bb5565b909650945060808b0135915080821115611ccd575f80fd5b50611cda8b828c01611bfd565b999c989b5096995094979396929594505050565b5f805f8060408587031215611d01575f80fd5b843567ffffffffffffffff80821115611d18575f80fd5b611d2488838901611bb5565b90965094506020870135915080821115611d3c575f80fd5b50611d4987828801611bb5565b95989497509550505050565b602080825282518282018190525f9190848201906040850190845b81811015611d8c57835183529284019291840191600101611d70565b50909695505050505050565b5f805f805f60608688031215611dac575f80fd5b611db586611a64565b9450602086013567ffffffffffffffff80821115611dd1575f80fd5b611ddd89838a01611bb5565b90965094506040880135915080821115611df5575f80fd5b50611e0288828901611bb5565b969995985093965092949392505050565b5f8060408385031215611e24575f80fd5b611e2d83611a64565b915060208301358015158114611e41575f80fd5b809150509250929050565b5f8060408385031215611e5d575f80fd5b611e6683611a64565b9150611e7460208401611a64565b90509250929050565b5f805f805f8060a08789031215611e92575f80fd5b611e9b87611a64565b9550611ea960208801611a64565b94506040870135935060608701359250608087013567ffffffffffffffff811115611ed2575f80fd5b611ede89828a01611bfd565b979a9699509497509295939492505050565b5f60208284031215611f00575f80fd5b611a5d82611a64565b5f8351611f1a818460208801611b13565b835190830190611f2e818360208801611b13565b01949350505050565b7f4e487b71000000000000000000000000000000000000000000000000000000005f52601160045260245ffd5b8082018082111561030457610304611f37565b7f4e487b71000000000000000000000000000000000000000000000000000000005f52603260045260245ffd5b8183525f7f07ffffffffffffffffffffffffffffffffffffffffffffffffffffffffffffff831115611fd4575f80fd5b8260051b80836020870137939093016020019392505050565b604081525f612000604083018688611fa4565b8281036020840152612013818587611fa4565b979650505050505050565b7f4e487b71000000000000000000000000000000000000000000000000000000005f52604160045260245ffd5b8181038181111561030457610304611f37565b81835281816020850137505f602082840101525f60207fffffffffffffffffffffffffffffffffffffffffffffffffffffffffffffffe0601f840116840101905092915050565b5f73ffffffffffffffffffffffffffffffffffffffff808b168352808a1660208401525060a060408301526120de60a08301888a611fa4565b82810360608401526120f1818789611fa4565b9050828103608084015261210681858761205e565b9b9a5050505050505050505050565b5f60208284031215612125575f80fd5b8151611a5d81611ab4565b5f73ffffffffffffffffffffffffffffffffffffffff808916835280881660208401525085604083015284606083015260a0608083015261217560a08301848661205e565b9897505050505050505056fea2646970667358221220a8e27711a4c0feb10a9fea2a93af918955cca5cfcaa12a491a996cec21f6acb064736f6c63430008180033",
  "linkReferences": {},
  "deployedLinkReferences": {}
}