{
  "_format": "hh-sol-artifact-1",
  "contractName": "Tnft",
  "sourceName": "contracts/Tnft.sol",
  "abi": [
    {
      "inputs": [],
      "stateMutability": "nonpayable",
      "type": "constructor"
    },
    {
      "inputs": [
        {
          "internalType": "uint256",
          "name": "tokenId",
          "type": "uint256"
        }
      ],
      "name": "ERC721ExistingToken",
      "type": "error"
    },
    {
      "inputs": [
        {
          "internalType": "address",
          "name": "operator",
          "type": "address"
        },
        {
          "internalType": "uint256",
          "name": "tokenId",
          "type": "uint256"
        }
      ],
      "name": "ERC721InsufficientApproval",
      "type": "error"
    },
    {
      "inputs": [
        {
          "internalType": "address",
          "name": "operator",
          "type": "address"
        }
      ],
      "name": "ERC721InvalidOperator",
      "type": "error"
    },
    {
      "inputs": [
        {
          "internalType": "address",
          "name": "owner",
          "type": "address"
        }
      ],
      "name": "ERC721InvalidOwner",
      "type": "error"
    },
    {
      "inputs": [
        {
          "internalType": "address",
          "name": "receiver",
          "type": "address"
        }
      ],
      "name": "ERC721InvalidReceiver",
      "type": "error"
    },
    {
      "inputs": [
        {
          "internalType": "address",
          "name": "sender",
          "type": "address"
        }
      ],
      "name": "ERC721InvalidSender",
      "type": "error"
    },
    {
      "inputs": [
        {
          "internalType": "uint256",
          "name": "tokenId",
          "type": "uint256"
        }
      ],
      "name": "ERC721NonexistentToken",
      "type": "error"
    },
    {
      "inputs": [
        {
          "internalType": "address",
          "name": "owner",
          "type": "address"
        }
      ],
      "name": "OwnableInvalidOwner",
      "type": "error"
    },
    {
      "inputs": [
        {
          "internalType": "address",
          "name": "account",
          "type": "address"
        }
      ],
      "name": "OwnableUnauthorizedAccount",
      "type": "error"
    },
    {
      "anonymous": false,
      "inputs": [
        {
          "indexed": true,
          "internalType": "address",
          "name": "owner",
          "type": "address"
        },
        {
          "indexed": true,
          "internalType": "address",
          "name": "approved",
          "type": "address"
        },
        {
          "indexed": true,
          "internalType": "uint256",
          "name": "tokenId",
          "type": "uint256"
        }
      ],
      "name": "Approval",
      "type": "event"
    },
    {
      "anonymous": false,
      "inputs": [
        {
          "indexed": true,
          "internalType": "address",
          "name": "owner",
          "type": "address"
        },
        {
          "indexed": true,
          "internalType": "address",
          "name": "operator",
          "type": "address"
        },
        {
          "indexed": false,
          "internalType": "bool",
          "name": "approved",
          "type": "bool"
        }
      ],
      "name": "ApprovalForAll",
      "type": "event"
    },
    {
      "anonymous": false,
      "inputs": [
        {
          "indexed": true,
          "internalType": "address",
          "name": "previousOwner",
          "type": "address"
        },
        {
          "indexed": true,
          "internalType": "address",
          "name": "newOwner",
          "type": "address"
        }
      ],
      "name": "OwnershipTransferred",
      "type": "event"
    },
    {
      "anonymous": false,
      "inputs": [
        {
          "indexed": true,
          "internalType": "address",
          "name": "from",
          "type": "address"
        },
        {
          "indexed": true,
          "internalType": "address",
          "name": "to",
          "type": "address"
        },
        {
          "indexed": true,
          "internalType": "uint256",
          "name": "tokenId",
          "type": "uint256"
        }
      ],
      "name": "Transfer",
      "type": "event"
    },
    {
      "inputs": [
        {
          "internalType": "address",
          "name": "to",
          "type": "address"
        },
        {
          "internalType": "uint256",
          "name": "tokenId",
          "type": "uint256"
        }
      ],
      "name": "approve",
      "outputs": [],
      "stateMutability": "nonpayable",
      "type": "function"
    },
    {
      "inputs": [
        {
          "internalType": "address",
          "name": "owner",
          "type": "address"
        }
      ],
      "name": "balanceOf",
      "outputs": [
        {
          "internalType": "uint256",
          "name": "",
          "type": "uint256"
        }
      ],
      "stateMutability": "view",
      "type": "function"
    },
    {
      "inputs": [],
      "name": "baseURI",
      "outputs": [
        {
          "internalType": "string",
          "name": "",
          "type": "string"
        }
      ],
      "stateMutability": "view",
      "type": "function"
    },
    {
      "inputs": [
        {
          "internalType": "uint256",
          "name": "tokenId",
          "type": "uint256"
        }
      ],
      "name": "burn",
      "outputs": [],
      "stateMutability": "nonpayable",
      "type": "function"
    },
    {
      "inputs": [
        {
          "internalType": "uint256",
          "name": "tokenId",
          "type": "uint256"
        }
      ],
      "name": "getApproved",
      "outputs": [
        {
          "internalType": "address",
          "name": "",
          "type": "address"
        }
      ],
      "stateMutability": "view",
      "type": "function"
    },
    {
      "inputs": [
        {
          "internalType": "address",
          "name": "owner",
          "type": "address"
        },
        {
          "internalType": "address",
          "name": "operator",
          "type": "address"
        }
      ],
      "name": "isApprovedForAll",
      "outputs": [
        {
          "internalType": "bool",
          "name": "",
          "type": "bool"
        }
      ],
      "stateMutability": "view",
      "type": "function"
    },
    {
      "inputs": [
        {
          "internalType": "address",
          "name": "to",
          "type": "address"
        },
        {
          "internalType": "uint256",
          "name": "tokenId",
          "type": "uint256"
        }
      ],
      "name": "mint",
      "outputs": [],
      "stateMutability": "nonpayable",
      "type": "function"
    },
    {
      "inputs": [],
      "name": "name",
      "outputs": [
        {
          "internalType": "string",
          "name": "",
          "type": "string"
        }
      ],
      "stateMutability": "view",
      "type": "function"
    },
    {
      "inputs": [],
      "name": "owner",
      "outputs": [
        {
          "internalType": "address",
          "name": "",
          "type": "address"
        }
      ],
      "stateMutability": "view",
      "type": "function"
    },
    {
      "inputs": [
        {
          "internalType": "uint256",
          "name": "tokenId",
          "type": "uint256"
        }
      ],
      "name": "ownerOf",
      "outputs": [
        {
          "internalType": "address",
          "name": "",
          "type": "address"
        }
      ],
      "stateMutability": "view",
      "type": "function"
    },
    {
      "inputs": [],
      "name": "renounceOwnership",
      "outputs": [],
      "stateMutability": "nonpayable",
      "type": "function"
    },
    {
      "inputs": [
        {
          "internalType": "address",
          "name": "from",
          "type": "address"
        },
        {
          "internalType": "address",
          "name": "to",
          "type": "address"
        },
        {
          "internalType": "uint256",
          "name": "tokenId",
          "type": "uint256"
        }
      ],
      "name": "safeTransferFrom",
      "outputs": [],
      "stateMutability": "nonpayable",
      "type": "function"
    },
    {
      "inputs": [
        {
          "internalType": "address",
          "name": "from",
          "type": "address"
        },
        {
          "internalType": "address",
          "name": "to",
          "type": "address"
        },
        {
          "internalType": "uint256",
          "name": "tokenId",
          "type": "uint256"
        },
        {
          "internalType": "bytes",
          "name": "data",
          "type": "bytes"
        }
      ],
      "name": "safeTransferFrom",
      "outputs": [],
      "stateMutability": "nonpayable",
      "type": "function"
    },
    {
      "inputs": [
        {
          "internalType": "address",
          "name": "operator",
          "type": "address"
        },
        {
          "internalType": "bool",
          "name": "_approved",
          "type": "bool"
        }
      ],
      "name": "setApprovalForAll",
      "outputs": [],
      "stateMutability": "nonpayable",
      "type": "function"
    },
    {
      "inputs": [
        {
          "internalType": "bytes4",
          "name": "interfaceId",
          "type": "bytes4"
        }
      ],
      "name": "supportsInterface",
      "outputs": [
        {
          "internalType": "bool",
          "name": "",
          "type": "bool"
        }
      ],
      "stateMutability": "view",
      "type": "function"
    },
    {
      "inputs": [],
      "name": "symbol",
      "outputs": [
        {
          "internalType": "string",
          "name": "",
          "type": "string"
        }
      ],
      "stateMutability": "view",
      "type": "function"
    },
    {
      "inputs": [
        {
          "internalType": "uint256",
          "name": "tokenId",
          "type": "uint256"
        }
      ],
      "name": "tokenURI",
      "outputs": [
        {
          "internalType": "string",
          "name": "",
          "type": "string"
        }
      ],
      "stateMutability": "view",
      "type": "function"
    },
    {
      "inputs": [
        {
          "internalType": "address",
          "name": "from",
          "type": "address"
        },
        {
          "internalType": "address",
          "name": "to",
          "type": "address"
        },
        {
          "internalType": "uint256",
          "name": "tokenId",
          "type": "uint256"
        }
      ],
      "name": "transferFrom",
      "outputs": [],
      "stateMutability": "nonpayable",
      "type": "function"
    },
    {
      "inputs": [
        {
          "internalType": "address",
          "name": "newOwner",
          "type": "address"
        }
      ],
      "name": "transferOwnership",
      "outputs": [],
      "stateMutability": "nonpayable",
      "type": "function"
    }
  ],
  "bytecode": "0x608060405234801561000f575f80fd5b50338061003557604051631e4fbdf760e01b81525f600482015260240160405180910390fd5b61003e81610044565b50610093565b5f80546001600160a01b038381166001600160a01b0319831681178455604051919092169283917f8be0079c531659141344cd1fd0a4f28419497f9722a3daafe3b4186f6b6457e09190a35050565b61185b806100a05f395ff3fe608060405234801561000f575f80fd5b5060043610610149575f3560e01c80636c0360eb116100c7578063a22cb4651161007d578063c87b56dd11610063578063c87b56dd146103b4578063e985e9c5146103c7578063f2fde38b1461040f575f80fd5b8063a22cb4651461038e578063b88d4fde146103a1575f80fd5b8063715018a6116100ad578063715018a61461032d5780638da5cb5b1461033557806395d89b4114610352575f80fd5b80636c0360eb146102ae57806370a08231146102ea575f80fd5b806323b872dd1161011c57806342842e0e1161010257806342842e0e1461025357806342966c68146102665780636352211e14610279575f80fd5b806323b872dd1461022d57806340c10f1914610240575f80fd5b806301ffc9a71461014d57806306fdde0314610175578063081812fc146101be578063095ea7b314610218575b5f80fd5b61016061015b3660046114bf565b610422565b60405190151581526020015b60405180910390f35b6101b16040518060400160405280600481526020017f546e66740000000000000000000000000000000000000000000000000000000081525081565b60405161016c919061154c565b6101f36101cc36600461155e565b5f9081526003602052604090205473ffffffffffffffffffffffffffffffffffffffff1690565b60405173ffffffffffffffffffffffffffffffffffffffff909116815260200161016c565b61022b61022636600461159d565b6104ba565b005b61022b61023b3660046115c5565b61070c565b61022b61024e36600461159d565b6109f6565b61022b6102613660046115c5565b610b79565b61022b61027436600461155e565b610ba3565b6101f361028736600461155e565b5f9081526001602052604090205473ffffffffffffffffffffffffffffffffffffffff1690565b6101b16040518060400160405280601881526020017f68747470733a2f2f6578616d706c652e636f6d2f6170692f000000000000000081525081565b61031f6102f83660046115fe565b73ffffffffffffffffffffffffffffffffffffffff165f9081526002602052604090205490565b60405190815260200161016c565b61022b610cbd565b5f5473ffffffffffffffffffffffffffffffffffffffff166101f3565b6101b16040518060400160405280600481526020017f544e46540000000000000000000000000000000000000000000000000000000081525081565b61022b61039c366004611617565b610cd0565b61022b6103af366004611650565b610e1c565b6101b16103c236600461155e565b610e6f565b6101606103d53660046116e3565b73ffffffffffffffffffffffffffffffffffffffff9182165f90815260046020908152604080832093909416825291909152205460ff1690565b61022b61041d3660046115fe565b610f35565b5f7fffffffff0000000000000000000000000000000000000000000000000000000082167f80ac58cd0000000000000000000000000000000000000000000000000000000014806104b457507fffffffff0000000000000000000000000000000000000000000000000000000082167f5b5e139f00000000000000000000000000000000000000000000000000000000145b92915050565b5f8181526001602052604090205473ffffffffffffffffffffffffffffffffffffffff168061051d576040517f7e273289000000000000000000000000000000000000000000000000000000008152600481018390526024015b60405180910390fd5b8273ffffffffffffffffffffffffffffffffffffffff168173ffffffffffffffffffffffffffffffffffffffff160361059a576040517f64a0ae9200000000000000000000000000000000000000000000000000000000815273ffffffffffffffffffffffffffffffffffffffff84166004820152602401610514565b73ffffffffffffffffffffffffffffffffffffffff83166105ff576040517f64a0ae9200000000000000000000000000000000000000000000000000000000815273ffffffffffffffffffffffffffffffffffffffff84166004820152602401610514565b73ffffffffffffffffffffffffffffffffffffffff81163314801590610655575073ffffffffffffffffffffffffffffffffffffffff81165f90815260046020908152604080832033845290915290205460ff16155b1561068e576040517f89c62b64000000000000000000000000000000000000000000000000000000008152336004820152602401610514565b5f8281526003602052604080822080547fffffffffffffffffffffffff00000000000000000000000000000000000000001673ffffffffffffffffffffffffffffffffffffffff87169081179091559051849233917f8c5be1e5ebec7d5bd14f71427d1e84f3dd0314c0f7b2291e5b200ac8c7c3b9259190a4505050565b73ffffffffffffffffffffffffffffffffffffffff8316610771576040517f73c6ac6e00000000000000000000000000000000000000000000000000000000815273ffffffffffffffffffffffffffffffffffffffff84166004820152602401610514565b73ffffffffffffffffffffffffffffffffffffffff82166107d6576040517f64a0ae9200000000000000000000000000000000000000000000000000000000815273ffffffffffffffffffffffffffffffffffffffff83166004820152602401610514565b5f8181526001602052604090205473ffffffffffffffffffffffffffffffffffffffff1680610834576040517f7e27328900000000000000000000000000000000000000000000000000000000815260048101839052602401610514565b8373ffffffffffffffffffffffffffffffffffffffff168173ffffffffffffffffffffffffffffffffffffffff16146108b1576040517f89c62b6400000000000000000000000000000000000000000000000000000000815273ffffffffffffffffffffffffffffffffffffffff85166004820152602401610514565b6108bc843384610f98565b6108fb576040517f177e802f00000000000000000000000000000000000000000000000000000000815233600482015260248101839052604401610514565b5f82815260016020818152604080842080547fffffffffffffffffffffffff00000000000000000000000000000000000000001673ffffffffffffffffffffffffffffffffffffffff89811691909117909155881684526002909152822080549192909161096a908490611741565b909155505073ffffffffffffffffffffffffffffffffffffffff83165f9081526002602052604081208054600192906109a4908490611754565b9091555050604051829073ffffffffffffffffffffffffffffffffffffffff80861691908716907fddf252ad1be2c89b69c2b068fc378daa952ba7f163c4a11628f55a4df523b3ef905f90a450505050565b6109fe61103c565b73ffffffffffffffffffffffffffffffffffffffff8216610a63576040517f64a0ae9200000000000000000000000000000000000000000000000000000000815273ffffffffffffffffffffffffffffffffffffffff83166004820152602401610514565b5f8181526001602052604090205473ffffffffffffffffffffffffffffffffffffffff1615610ac1576040517f753eceac00000000000000000000000000000000000000000000000000000000815260048101829052602401610514565b5f81815260016020818152604080842080547fffffffffffffffffffffffff00000000000000000000000000000000000000001673ffffffffffffffffffffffffffffffffffffffff8816908117909155845260029091528220805491929091610b2c908490611754565b9091555050604051819073ffffffffffffffffffffffffffffffffffffffff8416905f907fddf252ad1be2c89b69c2b068fc378daa952ba7f163c4a11628f55a4df523b3ef908290a45050565b610b8483838361070c565b610b9e83838360405180602001604052805f81525061108e565b505050565b610bab61103c565b5f8181526001602052604090205473ffffffffffffffffffffffffffffffffffffffff1680610c09576040517f7e27328900000000000000000000000000000000000000000000000000000000815260048101839052602401610514565b5f82815260016020818152604080842080547fffffffffffffffffffffffff000000000000000000000000000000000000000016905573ffffffffffffffffffffffffffffffffffffffff8516845260029091528220805491929091610c70908490611741565b909155505060405182905f9073ffffffffffffffffffffffffffffffffffffffff8416907fddf252ad1be2c89b69c2b068fc378daa952ba7f163c4a11628f55a4df523b3ef908390a45050565b610cc561103c565b610cce5f611281565b565b73ffffffffffffffffffffffffffffffffffffffff8216610d35576040517f5b08ba1800000000000000000000000000000000000000000000000000000000815273ffffffffffffffffffffffffffffffffffffffff83166004820152602401610514565b3373ffffffffffffffffffffffffffffffffffffffff831603610d86576040517f5b08ba18000000000000000000000000000000000000000000000000000000008152336004820152602401610514565b335f81815260046020908152604080832073ffffffffffffffffffffffffffffffffffffffff87168085529083529281902080547fffffffffffffffffffffffffffffffffffffffffffffffffffffffffffffff001686151590811790915590519081529192917f17307eab39ab6107e8899845ad3d59bd9653f200f220920489ca2b5937696c31910160405180910390a35050565b610e2785858561070c565b610e6885858585858080601f0160208091040260200160405190810160405280939291908181526020018383808284375f9201919091525061108e92505050565b5050505050565b5f8181526001602052604090205460609073ffffffffffffffffffffffffffffffffffffffff16610ecf576040517f7e27328900000000000000000000000000000000000000000000000000000000815260048101839052602401610514565b6040518060400160405280601881526020017f68747470733a2f2f6578616d706c652e636f6d2f6170692f0000000000000000815250610f0e836112f5565b604051602001610f1f929190611767565b6040516020818303038152906040529050919050565b610f3d61103c565b73ffffffffffffffffffffffffffffffffffffffff8116610f8c576040517f1e4fbdf70000000000000000000000000000000000000000000000000000000081525f6004820152602401610514565b610f9581611281565b50565b5f8273ffffffffffffffffffffffffffffffffffffffff168473ffffffffffffffffffffffffffffffffffffffff161480611004575073ffffffffffffffffffffffffffffffffffffffff8085165f9081526004602090815260408083209387168352929052205460ff165b8061103457505f8281526003602052604090205473ffffffffffffffffffffffffffffffffffffffff8481169116145b949350505050565b5f5473ffffffffffffffffffffffffffffffffffffffff163314610cce576040517f118cdaa7000000000000000000000000000000000000000000000000000000008152336004820152602401610514565b73ffffffffffffffffffffffffffffffffffffffff83163b1561127b576040517f150b7a0200000000000000000000000000000000000000000000000000000000815273ffffffffffffffffffffffffffffffffffffffff84169063150b7a0290611103903390889087908790600401611795565b6020604051808303815f875af192505050801561115b575060408051601f3d9081017fffffffffffffffffffffffffffffffffffffffffffffffffffffffffffffffe0168201909252611158918101906117dd565b60015b6111e8573d808015611188576040519150601f19603f3d011682016040523d82523d5f602084013e61118d565b606091505b5080515f036111e0576040517f64a0ae9200000000000000000000000000000000000000000000000000000000815273ffffffffffffffffffffffffffffffffffffffff85166004820152602401610514565b805181602001fd5b7fffffffff0000000000000000000000000000000000000000000000000000000081167f150b7a020000000000000000000000000000000000000000000000000000000014610e68576040517f64a0ae9200000000000000000000000000000000000000000000000000000000815273ffffffffffffffffffffffffffffffffffffffff85166004820152602401610514565b50505050565b5f805473ffffffffffffffffffffffffffffffffffffffff8381167fffffffffffffffffffffffff0000000000000000000000000000000000000000831681178455604051919092169283917f8be0079c531659141344cd1fd0a4f28419497f9722a3daafe3b4186f6b6457e09190a35050565b60605f611301836113b1565b60010190505f8167ffffffffffffffff811115611320576113206117f8565b6040519080825280601f01601f19166020018201604052801561134a576020820181803683370190505b5090508181016020015b7fffffffffffffffffffffffffffffffffffffffffffffffffffffffffffffffff017f3031323334353637383961626364656600000000000000000000000000000000600a86061a8153600a850494508461135457509392505050565b5f807a184f03e93ff9f4daa797ed6e38ed64bf6a1f01000000000000000083106113f9577a184f03e93ff9f4daa797ed6e38ed64bf6a1f010000000000000000830492506040015b6d04ee2d6d415b85acef81000000008310611425576d04ee2d6d415b85acef8100000000830492506020015b662386f26fc10000831061144357662386f26fc10000830492506010015b6305f5e100831061145b576305f5e100830492506008015b612710831061146f57612710830492506004015b60648310611481576064830492506002015b600a83106104b45760010192915050565b7fffffffff0000000000000000000000000000000000000000000000000000000081168114610f95575f80fd5b5f602082840312156114cf575f80fd5b81356114da81611492565b9392505050565b5f5b838110156114fb5781810151838201526020016114e3565b50505f910152565b5f815180845261151a8160208601602086016114e1565b601f017fffffffffffffffffffffffffffffffffffffffffffffffffffffffffffffffe0169290920160200192915050565b602081525f6114da6020830184611503565b5f6020828403121561156e575f80fd5b5035919050565b803573ffffffffffffffffffffffffffffffffffffffff81168114611598575f80fd5b919050565b5f80604083850312156115ae575f80fd5b6115b783611575565b946020939093013593505050565b5f805f606084860312156115d7575f80fd5b6115e084611575565b92506115ee60208501611575565b9150604084013590509250925092565b5f6020828403121561160e575f80fd5b6114da82611575565b5f8060408385031215611628575f80fd5b61163183611575565b915060208301358015158114611645575f80fd5b809150509250929050565b5f805f805f60808688031215611664575f80fd5b61166d86611575565b945061167b60208701611575565b935060408601359250606086013567ffffffffffffffff8082111561169e575f80fd5b818801915088601f8301126116b1575f80fd5b8135818111156116bf575f80fd5b8960208285010111156116d0575f80fd5b9699959850939650602001949392505050565b5f80604083850312156116f4575f80fd5b6116fd83611575565b915061170b60208401611575565b90509250929050565b7f4e487b71000000000000000000000000000000000000000000000000000000005f52601160045260245ffd5b818103818111156104b4576104b4611714565b808201808211156104b4576104b4611714565b5f83516117788184602088016114e1565b83519083019061178c8183602088016114e1565b01949350505050565b5f73ffffffffffffffffffffffffffffffffffffffff8087168352808616602084015250836040830152608060608301526117d36080830184611503565b9695505050505050565b5f602082840312156117ed575f80fd5b81516114da81611492565b7f4e487b71000000000000000000000000000000000000000000000000000000005f52604160045260245ffdfea26469706673582212207955b2a49f4d3388eaa09c7562b7dc698357c00f769bc43a90a3bc4d4f3775e364736f6c63430008180033",
  "linkReferences": {},
  "deployedLinkReferences": {}
}