{
  "_format": "hh-sol-artifact-1",
  "contractName": "RandomizerOracle",
  "sourceName": "contracts/oracle/RandomizerOracle.sol",
  "abi": [
    {
      "inputs": [
        {
          "internalType": "uint256",
          "name": "_subscriptionId",
          "type": "uint256"
        },
        {
          "internalType": "address",
          "name": "_vrfCoordinator",
          "type": "address"
        }
      ],
      "stateMutability": "nonpayable",
      "type": "constructor"
    },
    {
      "inputs": [
        {
          "internalType": "address",
          "name": "have",
          "type": "address"
        },
        {
          "internalType": "address",
          "name": "want",
          "type": "address"
        }
      ],
      "name": "OnlyCoordinatorCanFulfill",
      "type": "error"
    },
    {
      "inputs": [
        {
          "internalType": "address",
          "name": "have",
          "type": "address"
        },
        {
          "internalType": "address",
          "name": "owner",
          "type": "address"
        },
        {
          "internalType": "address",
          "name": "coordinator",
          "type": "address"
        }
      ],
      "name": "OnlyOwnerOrCoordinator",
      "type": "error"
    },
    {
      "inputs": [],
      "name": "ZeroAddress",
      "type": "error"
    },
    {
      "anonymous": false,
      "inputs": [
        {
          "indexed": false,
          "internalType": "address",
          "name": "vrfCoordinator",
          "type": "address"
        }
      ],
      "name": "CoordinatorSet",
      "type": "event"
    },
    {
      "anonymous": false,
      "inputs": [
        {
          "indexed": true,
          "internalType": "address",
          "name": "from",
          "type": "address"
        },
        {
          "indexed": true,
          "internalType": "address",
          "name": "to",
          "type": "address"
        }
      ],
      "name": "OwnershipTransferRequested",
      "type": "event"
    },
    {
      "anonymous": false,
      "inputs": [
        {
          "indexed": true,
          "internalType": "address",
          "name": "from",
          "type": "address"
        },
        {
          "indexed": true,
          "internalType": "address",
          "name": "to",
          "type": "address"
        }
      ],
      "name": "OwnershipTransferred",
      "type": "event"
    },
    {
      "anonymous": false,
      "inputs": [
        {
          "indexed": false,
          "internalType": "uint256",
          "name": "requestId",
          "type": "uint256"
        },
        {
          "indexed": false,
          "internalType": "uint256[]",
          "name": "randomWords",
          "type": "uint256[]"
        }
      ],
      "name": "RequestFulfilled",
      "type": "event"
    },
    {
      "anonymous": false,
      "inputs": [
        {
          "indexed": false,
          "internalType": "uint256",
          "name": "requestId",
          "type": "uint256"
        },
        {
          "indexed": false,
          "internalType": "uint32",
          "name": "numWords",
          "type": "uint32"
        }
      ],
      "name": "RequestSent",
      "type": "event"
    },
    {
      "inputs": [],
      "name": "acceptOwnership",
      "outputs": [],
      "stateMutability": "nonpayable",
      "type": "function"
    },
    {
      "inputs": [],
      "name": "getRandomNumber",
      "outputs": [
        {
          "internalType": "uint256",
          "name": "",
          "type": "uint256"
        }
      ],
      "stateMutability": "nonpayable",
      "type": "function"
    },
    {
      "inputs": [
        {
          "internalType": "uint256",
          "name": "_requestId",
          "type": "uint256"
        }
      ],
      "name": "getRequestStatus",
      "outputs": [
        {
          "internalType": "bool",
          "name": "fulfilled",
          "type": "bool"
        },
        {
          "internalType": "uint256[]",
          "name": "randomWords",
          "type": "uint256[]"
        }
      ],
      "stateMutability": "view",
      "type": "function"
    },
    {
      "inputs": [],
      "name": "latestRequestId",
      "outputs": [
        {
          "internalType": "uint256",
          "name": "",
          "type": "uint256"
        }
      ],
      "stateMutability": "view",
      "type": "function"
    },
    {
      "inputs": [],
      "name": "owner",
      "outputs": [
        {
          "internalType": "address",
          "name": "",
          "type": "address"
        }
      ],
      "stateMutability": "view",
      "type": "function"
    },
    {
      "inputs": [
        {
          "internalType": "uint256",
          "name": "requestId",
          "type": "uint256"
        },
        {
          "internalType": "uint256[]",
          "name": "randomWords",
          "type": "uint256[]"
        }
      ],
      "name": "rawFulfillRandomWords",
      "outputs": [],
      "stateMutability": "nonpayable",
      "type": "function"
    },
    {
      "inputs": [
        {
          "internalType": "uint256",
          "name": "",
          "type": "uint256"
        }
      ],
      "name": "requestIds",
      "outputs": [
        {
          "internalType": "uint256",
          "name": "",
          "type": "uint256"
        }
      ],
      "stateMutability": "view",
      "type": "function"
    },
    {
      "inputs": [],
      "name": "s_vrfCoordinator",
      "outputs": [
        {
          "internalType": "contract IVRFCoordinatorV2Plus",
          "name": "",
          "type": "address"
        }
      ],
      "stateMutability": "view",
      "type": "function"
    },
    {
      "inputs": [
        {
          "internalType": "address",
          "name": "_vrfCoordinator",
          "type": "address"
        }
      ],
      "name": "setCoordinator",
      "outputs": [],
      "stateMutability": "nonpayable",
      "type": "function"
    },
    {
      "inputs": [
        {
          "internalType": "address",
          "name": "to",
          "type": "address"
        }
      ],
      "name": "transferOwnership",
      "outputs": [],
      "stateMutability": "nonpayable",
      "type": "function"
    }
  ],
  "bytecode": "0x60a03461013657601f61100438819003918201601f19168301916001600160401b0383118484101761013a5780849260409485528339810103126101365780516020909101516001600160a01b038116908190036101365733156100f1575f80546001600160a01b0319908116331790915581156100df5760028054909116821790557f787d74caea10b2b357790d5b5247c2f63d1d91572a9846f780606e4d953677ae600455600580546001600160501b031916680186a0000300000001179055608052600355604051610eb5908161014f8239608051816103750152f35b60405163d92e233d60e01b8152600490fd5b60405162461bcd60e51b815260206004820152601860248201527f43616e6e6f7420736574206f776e657220746f207a65726f00000000000000006044820152606490fd5b5f80fd5b634e487b7160e01b5f52604160045260245ffdfe6080604081815260049182361015610015575f80fd5b5f3560e01c9081631aa46f5914610cfe575080631fe543e314610a7d57806379ba5097146109735780638796ba8c1461091d5780638da5cb5b146108cc5780638ea98117146107945780639eccacf614610742578063d8a4676f146105e8578063dbdff2c1146102005763f2fde38b1461008d575f80fd5b346101fc5760207ffffffffffffffffffffffffffffffffffffffffffffffffffffffffffffffffc3601126101fc5781359173ffffffffffffffffffffffffffffffffffffffff8084168094036101fc575f54169182330361019f57338414610142575050817fffffffffffffffffffffffff000000000000000000000000000000000000000060015416176001557fed8889f560326eb138920d842192f0eb3dd22b4f139c87a2c57538e05bae12785f80a3005b90602060649251917f08c379a0000000000000000000000000000000000000000000000000000000008352820152601760248201527f43616e6e6f74207472616e7366657220746f2073656c660000000000000000006044820152fd5b90602060649251917f08c379a0000000000000000000000000000000000000000000000000000000008352820152601660248201527f4f6e6c792063616c6c61626c65206279206f776e6572000000000000000000006044820152fd5b5f80fd5b5090346101fc575f7ffffffffffffffffffffffffffffffffffffffffffffffffffffffffffffffffc3601126101fc57805491600354916005549061ffff9460209563ffffffff9385519160c083019367ffffffffffffffff94848110868211176105bc57885283528883019788528683019080838b1c1682526060840191878460301c1683528760808601941684528851948b8601868110888211176105905791899594929b8694929c8c525f885260a08d019788528d60248d519e8f927f9b1c385e0000000000000000000000000000000000000000000000000000000084528d840152519101525160448d0152511660648b015251166084890152511660a48701525160c060c4870152868682518060e48301525f935b8185106105765750601f935081610104915f8382840101527fffffffffffffffffffffffffffffffffffffffffffffffffffffffffffffffe0958691011681010301815f73ffffffffffffffffffffffffffffffffffffffff7f0000000000000000000000000000000000000000000000000000000000000000165af195861561056c575f9661053d575b506006549268010000000000000000841015610511576103cd60019460018101600655610d36565b81549060031b907fffffffffffffffffffffffffffffffffffffffffffffffffffffffffffffffff8a831b921b19161790558660085584600554169161042a61041584610e22565b9361042289519586610de1565b808552610e22565b0136898401376001865161043d81610d98565b5f8152898101828152888201948552895f5260078b52885f2091511515907fffffffffffffffffffffffffffffffffffffffffffffffffffffffffffff000060ff61ff0085549351151560081b1693169116171781550191519081519384116105115750908783926104b188969584610e3a565b01905f52875f205f5b8381106104fd5750505050507fcc58b13ad3eab50626c6a6300b1d139cd6ebb1688a7cced9461c2f7e762665ee916005541681519085825286820152a151908152f35b8251818301558795509189019184016104ba565b6041907f4e487b71000000000000000000000000000000000000000000000000000000005f525260245ffd5b9095508681813d8311610565575b6105558183610de1565b810103126101fc5751945f6103a5565b503d61054b565b85513d5f823e3d90fd5b8481018401518a860161010401529383019389925061031a565b6041897f4e487b71000000000000000000000000000000000000000000000000000000005f525260245ffd5b6041877f4e487b71000000000000000000000000000000000000000000000000000000005f525260245ffd5b50346101fc57602091827ffffffffffffffffffffffffffffffffffffffffffffffffffffffffffffffffc3601126101fc57803590815f526007845260ff835f205460081c16156106e657505f5260078252805f2081519261064984610d98565b60ff82548181161515865260081c161515818501526001809201938351908183875491828152019081975f52845f20905f5b8181106106d35750505082610691910383610de1565b81858201525115159084519480860192865283860152518091526060840194915f5b8281106106c05785870386f35b83518752958101959281019284016106b3565b825484529286019291870191870161067b565b606490848451917f08c379a0000000000000000000000000000000000000000000000000000000008352820152601160248201527f72657175657374206e6f7420666f756e640000000000000000000000000000006044820152fd5b50346101fc575f7ffffffffffffffffffffffffffffffffffffffffffffffffffffffffffffffffc3601126101fc5760209073ffffffffffffffffffffffffffffffffffffffff600254169051908152f35b50346101fc5760207ffffffffffffffffffffffffffffffffffffffffffffffffffffffffffffffffc3601126101fc5781359173ffffffffffffffffffffffffffffffffffffffff8084168094036101fc57805f54169081331415806108be575b61087e5750508215610857577fd1a6a14209a385a964d036e404cb5cfb71f4000cdb03c9366292430787261be660208484817fffffffffffffffffffffffff0000000000000000000000000000000000000000600254161760025551908152a1005b90517fd92e233d000000000000000000000000000000000000000000000000000000008152fd5b9060649391600254169151927f061db9c1000000000000000000000000000000000000000000000000000000008452339084015260248301526044820152fd5b5080600254163314156107f5565b50346101fc575f7ffffffffffffffffffffffffffffffffffffffffffffffffffffffffffffffffc3601126101fc5760209073ffffffffffffffffffffffffffffffffffffffff5f54169051908152f35b5090346101fc5760207ffffffffffffffffffffffffffffffffffffffffffffffffffffffffffffffffc3601126101fc5735906006548210156101fc57610965602092610d36565b91905490519160031b1c8152f35b50346101fc575f7ffffffffffffffffffffffffffffffffffffffffffffffffffffffffffffffffc3601126101fc576001549173ffffffffffffffffffffffffffffffffffffffff918284163303610a205750505f54917fffffffffffffffffffffffff00000000000000000000000000000000000000009033828516175f55166001553391167f8be0079c531659141344cd1fd0a4f28419497f9722a3daafe3b4186f6b6457e05f80a3005b90602060649251917f08c379a0000000000000000000000000000000000000000000000000000000008352820152601660248201527f4d7573742062652070726f706f736564206f776e6572000000000000000000006044820152fd5b50346101fc57807ffffffffffffffffffffffffffffffffffffffffffffffffffffffffffffffffc3601126101fc57813590602480359167ffffffffffffffff918284116101fc57366023850112156101fc57838601359283116101fc57808401958360051b94828636920101116101fc5773ffffffffffffffffffffffffffffffffffffffff60025416803303610ccb5750855f526020916007835260ff845f205460081c1615610c7157865f526007835260ff845f205416610c17575050845f5260078152600180835f2001610b558582610e3a565b87905f52825f20905f5b868110610c065750505050918181927f07ffffffffffffffffffffffffffffffffffffffffffffffffffffffffffffff94875f5260078152815f2060017fffffffffffffffffffffffffffffffffffffffffffffffffffffffffffffff008254161790558151978852870152850152116101fc5781816060927ffe2e2d779dba245964d4e3ef9b994be63856fd568bf7d3ca9e224755cb1bd54d95848401378101030190a1005b813583820155908401908301610b5f565b6019919260649451937f08c379a00000000000000000000000000000000000000000000000000000000085528401528201527f5265717565737420616c72656164792066756c66696c6c6564000000000000006044820152fd5b6016919260649451937f08c379a00000000000000000000000000000000000000000000000000000000085528401528201527f5265717565737420646f6573206e6f74206578697374000000000000000000006044820152fd5b6044928451927f1cf993f40000000000000000000000000000000000000000000000000000000084523390840152820152fd5b346101fc575f7ffffffffffffffffffffffffffffffffffffffffffffffffffffffffffffffffc3601126101fc576020906008548152f35b600654811015610d6b5760065f527ff652222313e28459528d920b65115c16c04f3efc82aaedc97be59f3f377c0d3f01905f90565b7f4e487b71000000000000000000000000000000000000000000000000000000005f52603260045260245ffd5b6060810190811067ffffffffffffffff821117610db457604052565b7f4e487b71000000000000000000000000000000000000000000000000000000005f52604160045260245ffd5b90601f7fffffffffffffffffffffffffffffffffffffffffffffffffffffffffffffffe0910116810190811067ffffffffffffffff821117610db457604052565b67ffffffffffffffff8111610db45760051b60200190565b90680100000000000000008111610db457815491818155828210610e5d57505050565b5f5260205f2091820191015b818110610e74575050565b5f8155600101610e6956fea264697066735822122050b37087a69ba16ab0bb8c066075a9e92805061e306ca6b68014bce8d402482864736f6c63430008180033",
  "linkReferences": {},
  "deployedLinkReferences": {}
}